:100000000C9446000C9465000C9465000C946500FB
:100010000C9465000C9465000C9465000C946500CC
:100020000C9465000C9465000C9465000C946500BC
:100030000C9465000C94DE000C9465000C94650033
:100040000C9465000C9465000C9465000C9465009C
:100050000C9465000C9465000C9465000C9465008C
:100060000C9465000C9465000C9465000C9465007C
:100070000C9465000C9465000C9465000C9465006C
:100080000C9465000C9465000C94650011241FBE4F
:10009000CFEFD0E4DEBFCDBF11E0A0E0B1E0E4E4FB
:1000A000FBE000E00BBF02C007900D92A831B10742
:1000B000D9F721E0A8E1B1E001C01D92A933B20750
:1000C000E1F70E9460050C94A0050C940000CF930A
:1000D000DF9300D01F92CDB7DEB789837B836A831D
:1000E00089818A3031F48A819B81BC018DE00E9434
:1000F000670080EC90E0FC018081882F90E08072A6
:100100009927892BB1F386EC90E02981FC012083AB
:1001100080E090E00F900F900F90DF91CF910895C5
:10012000CF93DF93CDB7DEB781E890E02BE0FC0101
:10013000208388E890E02DE730E0FC0131832083C4
:100140008FE690E022E0FC01208384E890E0FC014F
:100150001182108280910E0190910F01A0911001E7
:10016000B09111018093190190931A01A0931B0182
:10017000B0931C018FE590E02FE530E0F90120817C
:100180002068FC0120830000DF91CF910895CF9378
:10019000DF93CDB7DEB781E890E0FC01108200006C
:1001A000DF91CF910895CF93DF93CDB7DEB781E094
:1001B000809318010000DF91CF9108951F920F9254
:1001C00000905F000F92112400905B000F922F931C
:1001D0003F934F935F936F937F938F939F93AF93CF
:1001E000BF93EF93FF93CF93DF93CDB7DEB78091AB
:1001F000190190911A01A0911B01B0911C01019766
:10020000A109B1098093190190931A01A0931B01D0
:10021000B0931C018091190190911A01A0911B01CA
:10022000B0911C01892B8A2B8B2B91F40E94D30057
:1002300080910E0190910F01A0911001B0911101D8
:100240008093190190931A01A0931B01B0931C0194
:100250000000DF91CF91FF91EF91BF91AF919F91FE
:100260008F917F916F915F914F913F912F910F905F
:1002700000925B000F9000925F000F901F90189506
:10028000CF93DF9300D000D0CDB7DEB769837A83F8
:100290008B839C8389819A81AB81BC8180930E0181
:1002A00090930F01A0931001B093110180910E0162
:1002B00090910F01A0911001B0911101809319014B
:1002C00090931A01A0931B01B0931C0100000F90A2
:1002D0000F900F900F90DF91CF910895CF93DF9300
:1002E000CDB7DEB78091350190913601813091050F
:1002F00091F08130910540F08230910509F448C0B9
:10030000039709F482C0BEC081E090E0909336016B
:1003100080933501B7C080911201282F30E040E072
:1003200050E08091200190912101A0912201B09193
:100330002301820F931FA41FB51F80932001909368
:100340002101A0932201B09323018091200190917B
:100350002101A0912201B09123018C329140A1058D
:10036000B10538F481E090E0909336018093350137
:1003700089C0109220011092210110922201109246
:10038000230182E090E090933601809335017AC09A
:1003900080911201282F30E040E050E08091200150
:1003A00090912101A0912201B0912301820F931F0E
:1003B000A41FB51F8093200190932101A0932201D7
:1003C000B09323018091200190912101A0912201FD
:1003D000B09123018C329140A105B10538F482E03F
:1003E00090E090933601809335014CC0109220012B
:1003F00010922101109222011092230183E090E0DB
:1004000090933601809335013DC080911201282FD1
:1004100030E040E050E08091200190912101A091D6
:100420002201B0912301820F931FA41FB51F809357
:10043000200190932101A0932201B0932301809188
:10044000200190912101A0912201B09123018C32D1
:100450009140A105B10538F483E090E09093360116
:10046000809335010EC0109220011092210110924C
:1004700022011092230181E090E090933601809355
:100480003501000080913501909136018130910550
:1004900049F08130910590F08230910539F0039751
:1004A00049F00DC081E080931D0109C082E0809376
:1004B0001D0105C084E080931D0101C00000000003
:1004C000DF91CF910895CF93DF93CDB7DEB78091C1
:1004D0003701909138018130910571F0813091059B
:1004E00020F0029709F445C081C081E090E090932C
:1004F0003801809337017FC080911201282F30E0AE
:1005000040E050E08091240190912501A0912601C6
:10051000B0912701820F931FA41FB51F8093240160
:1005200090932501A0932601B09327018091240187
:1005300090912501A0912601B0912701883E93401A
:10054000A105B10538F481E090E0909338018093E3
:10055000370151C0109224011092250110922601FA
:100560001092270182E090E0909338018093370148
:1005700042C080911201282F30E040E050E080918D
:10058000240190912501A0912601B0912701820FAD
:10059000931FA41FB51F8093240190932501A0935E
:1005A0002601B09327018091240190912501A0910B
:1005B0002601B0912701883E9340A105B10538F48A
:1005C00082E090E0909338018093370114C010923C
:1005D000240110922501109226011092270181E03A
:1005E00090E0909338018093370105C01092380154
:1005F00010923701000080913701909138018130CD
:10060000910531F08130910550F0029729F008C032
:1006100088E080931E0104C010921E0101C00000FA
:100620000000DF91CF910895CF93DF931F92CDB754
:10063000DEB780E290E0FC01808180958470898340
:1006400080913101909132018130910589F08130A2
:10065000910538F082309105E1F0039709F472C0FA
:10066000CAC081E090E09093320180933101C8C00C
:100670008981843039F482E090E090933201809354
:100680003101BEC081E090E090933201809331014E
:10069000B7C080911201282F30E040E050E08091F7
:1006A000280190912901A0912A01B0912B01820F7C
:1006B000931FA41FB51F8093280190932901A09335
:1006C0002A01B0932B0120912801309129014091FA
:1006D0002A0150912B018091130190911401A09156
:1006E0001501B0911601281739074A075B0788F4EE
:1006F0008981843039F482E090E0909332018093D4
:1007000031017EC081E090E090933201809331010D
:1007100077C0109228011092290110922A0110929C
:100720002B018981843039F483E090E09093320189
:100730008093310165C081E090E090933201809315
:1007400031015EC080911201282F30E040E050E07E
:100750008091280190912901A0912A01B0912B014B
:10076000820F931FA41FB51F809328019093290126
:10077000A0932A01B0932B012091280130912901E7
:1007800040912A0150912B01809113019091140105
:10079000A0911501B0911601281739074A075B0788
:1007A00088F48981843039F483E090E090933201B9
:1007B0008093310125C081E090E0909332018093D5
:1007C00031011EC0109228011092290110922A01B5
:1007D00010922B018981843039F482E090E090936B
:1007E0003201809331010CC081E090E0909332019E
:1007F0008093310105C01092320110923101000046
:1008000080913101909132018130910549F0813020
:10081000910580F08230910531F0039741F00BC0D3
:1008200010921F0108C080E180931F0104C0109244
:100830001F0101C0000000000F90DF91CF910895CB
:10084000CF93DF931F92CDB7DEB780E290E0FC013B
:1008500080818095837089838091330190913401E8
:100860008130910591F08130910540F08230910501
:1008700009F44EC0039709F488C0C4C081E090E039
:100880009093340180933301C3C080911201282FCB
:1008900030E040E050E080912C0190912D01A0913A
:1008A0002E01B0912F01820F931FA41FB51F8093BB
:1008B0002C0190932D01A0932E01B0932F018091D4
:1008C0002C0190912D01A0912E01B0912F01843621
:1008D0009105A105B10538F481E090E090933401D1
:1008E0008093330194C08981813039F482E090E0B3
:1008F00090933401809333018AC08981823009F05A
:1009000086C083E090E090933401809333017FC0F0
:1009100080911201282F30E040E050E080912C01BE
:1009200090912D01A0912E01B0912F01820F931F64
:10093000A41FB51F80932C0190932D01A0932E012D
:10094000B0932F0180912C0190912D01A0912E0147
:10095000B0912F0184369105A105B10538F482E0EC
:1009600090E0909334018093330152C010922C0197
:1009700010922D0110922E0110922F0181E090E033
:10098000909334018093330143C080911201282F4A
:1009900030E040E050E080912C0190912D01A09139
:1009A0002E01B0912F01820F931FA41FB51F8093BA
:1009B0002C0190932D01A0932E01B0932F018091D3
:1009C0002C0190912D01A0912E01B0912F01843620
:1009D0009105A105B10538F483E090E090933401CE
:1009E0008093330115C010922C0110922D011092AA
:1009F0002E0110922F0181E090E0909334018093BA
:100A0000330106C0109234011092330101C000007E
:100A100080913301909134018130910589F18130C9
:100A2000910580F18230910519F00397A9F02BC050
:100A30008091130190911401A0911501B0911601BC
:100A40000196A11DB11D8093130190931401A093F1
:100A50001501B093160117C08091130190911401F4
:100A6000A0911501B09116010197A109B1098093D8
:100A7000130190931401A0931501B093160103C0C4
:100A8000000001C0000000000F90DF91CF91089599
:100A9000CF93DF93CDB7DEB790911D0180911E01FA
:100AA000982B80911F01892B8093300185E290E083
:100AB00020913001FC0120830000DF91CF91089547
:100AC000CF93DF93CDB7DEB781E290E0FC011082D7
:100AD00082E290E02FEFFC01208384E290E02FEF90
:100AE000FC01208385E290E0FC01108261E070E06F
:100AF00080E090E00E9440010E9490001092360138
:100B00001092350110923801109237011092320183
:100B10001092310110923401109233010E946E0143
:100B20000E9463020E9414030E9420040E94480550
:100B30000000809118018823E1F310921801EECF94
:040B4000F894FFCF57
:100B44000000000200000000670000000000010037
:080B5400000001050000000093
:00000001FF
