:100000000C944D000C946C000C946C000C946C00DF
:100010000C946C000C946C000C946C000C946C00B0
:100020000C946C000C946C000C946C000C946C00A0
:100030000C946C000C946C000C946C000C946C0090
:100040000C946C000C946C000C946C000C946C0080
:100050000C946C000C946C000C946C000C946C0070
:100060000C946C000C946C000C946C000C946C0060
:100070000C946C000C946C000C946C000C946C0050
:100080000C946C000C946C000C946C00D200D900A1
:10009000EA000C014A016C012E0111241FBECFEFB2
:1000A000D0E4DEBFCDBF11E0A0E0B1E0E0E1F4E0DC
:1000B00000E00BBF02C007900D92AE30B107D9F738
:1000C00011E0AEE0B1E001C01D92A031B107E1F74F
:1000D0000E94D7010C9406020C940000CF93DF938A
:1000E00000D01F92CDB7DEB789837B836A83898175
:1000F0008A3031F48A819B81BC018DE00E946E00C0
:1001000080EC90E0FC018081882F90E0807299273C
:100110000097B1F386EC90E02981FC01208380E018
:1001200090E00F900F900F90DF91CF910895CF93B3
:10013000DF9300D000D000D0CDB7DEB780E290E0F2
:10014000FC01808181708A8380E290E0FC018081E3
:1001500082708B8380E290E0FC01808184708C83CC
:1001600080E290E0FC01808180788D8380E290E0E5
:10017000FC0180818E83198280910E0190910F0184
:10018000CC01A0E0B0E040E050E026E030E0841B8D
:10019000950B2817390708F4C1C08A5B9F4FFC01F3
:1001A0000C94FD0181E090E090930F0180930E018B
:1001B000BCC08C81882339F082E090E090930F01DD
:1001C00080930E01B2C081E090E090930F01809384
:1001D0000E01ABC08E81882339F483E090E09093C8
:1001E0000F0180930E0117C08C81882339F082E0C3
:1001F00090E090930F0180930E010DC08A818823B7
:1002000019F48B81882339F081E090E090930F01FD
:1002100080930E018AC089C08E81882339F483E0DF
:1002200090E090930F0180930E0117C08C8188237A
:1002300019F48A81882339F081E090E090930F01CE
:1002400080930E010AC08B81882339F086E090E00C
:1002500090930F0180930E0168C067C08D81882341
:1002600039F081E090E090930F0180930E0111C06E
:100270008C81882339F084E090E090930F01809383
:100280000E0107C086E090E090930F0180930E016D
:100290004CC04BC08E81882339F485E090E0909368
:1002A0000F0180930E0117C08C81882339F084E000
:1002B00090E090930F0180930E010DC08A818823F6
:1002C00019F48B81882339F081E090E090930F013D
:1002D00080930E012AC029C08E81882339F485E0DD
:1002E00090E090930F0180930E0117C08C818823BA
:1002F00019F48A81882339F081E090E090930F010E
:1003000080930E010AC08B81882339F086E090E04B
:1003100090930F0180930E0108C007C081E090E028
:1003200090930F0180930E01000088E290E02091ED
:100330000E0130910F01FC01208380910E019091FC
:100340000F0183309105F1F08430910538F481304C
:10035000910571F082309105B9F01BC0853091058F
:10036000A9F085309105A0F08630910519F011C0F3
:1003700019820FC08981882319F481E0898309C01B
:10038000198207C0000005C0000003C0000001C0C2
:10039000000085E290E02981FC01208326960FB6BB
:1003A000F894DEBF0FBECDBFDF91CF910895CF93FC
:1003B000DF93CDB7DEB781E290E0FC01108282E2EC
:1003C00090E02FEFFC01208384E290E02FEFFC010E
:1003D000208385E290E0FC01108287E290E02FEF1D
:1003E000FC01208388E290E0FC01108210920F0152
:1003F00010920E010E949700FDCFEE0FFF1F002408
:10040000001C0BBE0790F691E02D0994F894FFCFE5
:0E04100000000002000000006E00000000006E
:00000001FF
