:100000000C9446000C9465000C9465000C946500FB
:100010000C9465000C9465000C9465000C946500CC
:100020000C9465000C9465000C9465000C946500BC
:100030000C9465000C9465000C9465000C946500AC
:100040000C9465000C9465000C9465000C9465009C
:100050000C9465000C9465000C9465000C9465008C
:100060000C9465000C9465000C9465000C9465007C
:100070000C9465000C9465000C9465000C9465006C
:100080000C9465000C9465000C94650011241FBE4F
:10009000CFEFD0E4DEBFCDBF11E0A0E0B1E0E6EDF0
:1000A000F2E000E00BBF02C007900D92AE30B10746
:1000B000D9F711E0AEE0B1E001C01D92A031B10767
:1000C000E1F70E944C010C9469010C940000CF935D
:1000D000DF9300D01F92CDB7DEB789837B836A831D
:1000E00089818A3031F48A819B81BC018DE00E9434
:1000F000670080EC90E0FC018081882F90E08072A6
:1001000099270097B1F386EC90E02981FC012083C8
:1001100080E090E00F900F900F90DF91CF910895C5
:10012000CF93DF93CDB7DEB780910E0190910F0191
:100130008230910509F45EC08330910530F4009758
:1001400059F08130910579F06CC08330910519F137
:1001500084309105C1F165C081E090E090930F017A
:1001600080930E0165C080E290E0FC018081882FC1
:1001700090E081709927009739F083E090E09093A8
:100180000F0180930E0154C081E090E090930F0125
:1001900080930E014DC080E290E0FC018081882FA9
:1001A00090E081709927009739F083E090E0909378
:1001B0000F0180930E013CC084E090E090930F010A
:1001C00080930E0135C080E290E0FC018081882F91
:1001D00090E081709927009739F082E090E0909349
:1001E0000F0180930E0106C084E090E090930F0110
:1001F00080930E0180E290E0FC018081882F90E0E6
:1002000081709927009739F082E090E090930F0178
:1002100080930E0106C081E090E090930F018093DF
:100220000E0181E090E090930F0180930E01000099
:1002300080910E0190910F0182309105F9F0833089
:10024000910520F48130910541F01DC08330910566
:1002500051F08430910569F016C085E290E021E00C
:10026000FC01208316C085E290E022E0FC0120839F
:1002700010C085E290E022E0FC01208385E290E05E
:1002800021E0FC01208385E290E021E0FC01208355
:100290000000DF91CF910895CF93DF93CDB7DEB704
:1002A00081E290E0FC01108282E290E02FEFFC01FD
:1002B000208384E290E02FEFFC01208385E290E030
:1002C000FC01108210920F0110920E010E9490000A
:0602D000FDCFF894FFCF02
:0E02D6000000000200000000670000000000B1
:00000001FF
