:100000000C9457000C9476000C9476000C947600B7
:100010000C9476000C9476000C9476000C94760088
:100020000C9476000C9476000C9476000C94760078
:100030000C9476000C9476000C9476000C94760068
:100040000C9476000C9476000C9476000C94760058
:100050000C9476000C9476000C9476000C94760048
:100060000C9476000C9476000C9476000C94760038
:100070000C9476000C9476000C9476000C94760028
:100080000C9476000C9476000C947600DC00E3006F
:10009000F400160179019B013801BD015D010302E5
:1000A0000F020F020F020F020F020F0205021124AE
:1000B0001FBECFEFD0E4DEBFCDBF11E0A0E0B1E0C6
:1000C000EEE9F4E000E00BBF02C007900D92AE3005
:1000D000B107D9F711E0AEE0B1E001C01D92A03147
:1000E000B107E1F70E941E020C944D020C9400002F
:1000F000CF93DF9300D01F92CDB7DEB789837B8388
:100100006A8389818A3031F48A819B81BC018DE0C8
:100110000E94780080EC90E0FC018081882F90E0C4
:10012000807299270097B1F386EC90E02981FC0159
:10013000208380E090E00F900F900F90DF91CF919F
:100140000895CF93DF9300D000D000D0CDB7DEB7B5
:1001500080E290E0FC01808181708A8380E290E0FF
:10016000FC01808182708B8380E290E0FC018081C1
:1001700084708C8380E290E0FC01808180788D83A4
:1001800080E290E0FC0180818E83198280910E01D3
:1001900090910F01CC01A0E0B0E040E050E028E0F9
:1001A00030E0841B950B2817390708F408C18A5BD7
:1001B0009F4FFC010C94440281E090E090930F016A
:1001C00080930E0103C18C81882339F082E090E096
:1001D00090930F0180930E01F9C081E090E090931D
:1001E0000F0180930E01F2C08A81882339F083E0E9
:1001F00090E090930F0180930E0117C08C818823AB
:1002000019F48E81882339F482E090E090930F01F5
:1002100080930E010AC08B81882339F081E090E041
:1002200090930F0180930E01D1C0D0C08A818823A2
:1002300019F48E81882339F483E090E090930F01C4
:1002400080930E0114C08B81882339F086E090E002
:1002500090930F0180930E010AC08C81882339F09E
:1002600081E090E090930F0180930E01AFC0AEC08B
:100270008B81882319F48E81882339F486E090E0FD
:1002800090930F0180930E0117C08A81882319F47F
:100290008E81882339F088E090E090930F0180935D
:1002A0000E010AC08C81882339F081E090E09093A0
:1002B0000F0180930E018AC089C08D81882339F097
:1002C00081E090E090930F0180930E0111C08C812A
:1002D000882339F084E090E090930F0180930E0121
:1002E00007C088E090E090930F0180930E016EC0EC
:1002F0006DC08C81882319F48E81882339F484E0C1
:1003000090E090930F0180930E0114C08A8188239E
:1003100039F085E090E090930F0180930E010AC0C0
:100320008B81882339F088E090E090930F018093CF
:100330000E014CC04BC08A81882319F48E8188231A
:1003400039F485E090E090930F0180930E0114C082
:100350008B81882339F087E090E090930F018093A0
:100360000E010AC08C81882339F088E090E09093D8
:100370000F0180930E012AC029C08B81882319F4B4
:100380008E81882339F487E090E090930F01809369
:100390000E0114C08C81882339F088E090E090939E
:1003A0000F0180930E010AC08A81882339F081E011
:1003B00090E090930F0180930E0108C007C081E088
:1003C00090E090930F0180930E01000088E290E08E
:1003D00020910E0130910F01FC01208380910E01CC
:1003E00090910F01CC01A0E0B0E041E050E027E0A7
:1003F00030E0841B950B2817390778F0815B9F4FFD
:10040000FC010C94440219820BC08981882319F4E1
:1004100081E0898305C0198203C0000001C000008B
:1004200085E290E02981FC01208326960FB6F8949E
:10043000DEBF0FBECDBFDF91CF910895CF93DF9385
:10044000CDB7DEB781E290E0FC01108282E290E05D
:100450002FEFFC01208384E290E02FEFFC0120834A
:1004600085E290E0FC01108287E290E02FEFFC0132
:10047000208388E290E0FC01108210920F0110921C
:100480000E010E94A100FDCFEE0FFF1F0024001CF3
:0E0490000BBE0790F691E02D0994F894FFCF73
:0E049E000000000200000000780000000000D6
:00000001FF
