:100000000C9446000C9465000C9465000C946500FB
:100010000C9465000C9465000C9465000C946500CC
:100020000C9465000C9465000C9465000C946500BC
:100030000C9465000C94E3000C9465000C9465002E
:100040000C9465000C9465000C9465000C9465009C
:100050000C9465000C9465000C9465000C9465008C
:100060000C9465000C9465000C9465000C9465007C
:100070000C9465000C9465000C9465000C9465006C
:100080000C9465000C9465000C94650011241FBE4F
:10009000CFEFD0E4DEBFCDBF11E0A0E0B1E0E6E5F8
:1000A000FFE000E00BBF02C007900D92AA32B1073B
:1000B000D9F721E0AAE2B1E001C01D92A237B20750
:1000C000E1F70E949F050C94A9070C940000CF93C0
:1000D000DF9300D000D0CDB7DEB769837A838B83FE
:1000E0009C8389819A81AB81BC818093000190932C
:1000F0000101A0930201B09303018091000190914E
:100100000101A0910201B091030180932B01909312
:100110002C01A0932D01B0932E0100000F900F90A1
:100120000F900F90DF91CF910895CF93DF93CDB7CC
:10013000DEB781E890E02BE0FC01208388E890E0C6
:100140002DE730E0FC01318320838FE690E022E050
:10015000FC01208384E890E0FC01118210828091F0
:10016000000190910101A0910201B09103018093DF
:100170002B0190932C01A0932D01B0932E018FE5BC
:1001800090E02FE530E0F90120812068FC01208318
:100190000000DF91CF910895CF93DF93CDB7DEB705
:1001A00081E890E0FC0110820000DF91CF9108957A
:1001B000CF93DF93CDB7DEB781E080932A010000B3
:1001C000DF91CF9108951F920F9200905F000F92E0
:1001D000112400905B000F922F933F934F935F93F6
:1001E0006F937F938F939F93AF93BF93EF93FF93FF
:1001F000CF93DF93CDB7DEB780912B0190912C0187
:10020000A0912D01B0912E010197A109B109809310
:100210002B0190932C01A0932D01B0932E0180917E
:100220002B0190912C01A0912D01B0912E01892BD1
:100230008A2B8B2B91F40E94D80080910001909121
:100240000101A0910201B091030180932B019093D1
:100250002C01A0932D01B0932E010000DF91CF91CE
:10026000FF91EF91BF91AF919F918F917F916F918E
:100270005F914F913F912F910F9000925B000F90F3
:1002800000925F000F901F901895CF93DF9300D0DE
:100290001F92CDB7DEB789837B836A8389818A30D9
:1002A00031F48A819B81BC018DE00E94450180EC84
:1002B00090E0FC018081882F90E080729927892B43
:1002C000B1F386EC90E02981FC01208380E090E08E
:1002D0000F900F900F90DF91CF910895CF93DF9300
:1002E00000D000D0CDB7DEB79C838B8380E290E056
:1002F000FC01808180958072898380E290E0FC011E
:100300008081809580718A838B819C818230910568
:1003100051F1833091052CF4009769F00197B1F009
:1003200056C084309105C9F1843091054CF1059790
:1003300009F440C04CC08A81882329F081E090E014
:100340009C838B8347C01C821B8244C08981882385
:1003500029F085E090E09C838B833CC082E090E0B4
:100360009C838B8337C08981882329F085E090E0C6
:100370009C838B832FC083E090E09C838B832AC077
:100380008981882329F085E090E09C838B8322C0BB
:1003900084E090E09C838B831DC08981882329F0B1
:1003A00085E090E09C838B8315C081E090E09C8386
:1003B0008B8310C08A81882329F081E090E09C83A0
:1003C0008B8308C085E090E09C838B8303C01C82F4
:1003D0001B8200008B819C8182309105F9F0833073
:1003E00091052CF4009761F0019789F032C08430B8
:1003F000910511F184309105C4F0059721F129C0D0
:100400008FEF80932F018EE08093120122C080E451
:1004100080932F0181E1809312011BC080E28093C1
:100420002F018BE18093120114C080E180932F0192
:1004300081E1809312010DC084E080932F0181E15E
:100440008093120106C010922F018FE18093120158
:1004500000008B819C810F900F900F900F90DF9187
:10046000CF910895CF93DF9300D01F92CDB7DEB721
:100470008B831A8219828B81882329F480E991E089
:100480009A8389832FC08B81813029F48EE591E096
:100490009A83898327C08B81823029F48CE291E092
:1004A0009A8389831FC08B81833029F48AEF90E07F
:1004B0009A83898317C08B81843029F488EC90E07B
:1004C0009A8389830FC08B81853029F486E990E077
:1004D0009A83898307C08B81863021F484E690E07B
:1004E0009A83898389819A810F900F900F90DF9171
:1004F000CF910895CF93DF93CDB7DEB729970FB68D
:10050000F894DEBF0FBECDBF9987888780E290E068
:10051000FC01808180958072898380E290E0FC01FB
:100520008081882F90E08170992721E0892B09F044
:1005300020E02A8380E290E0FC0180818095827037
:100540008B8380E290E0FC018081809584708C83B5
:1005500080E290E0FC018081809580788D831F820D
:100560001E82888599858230910509F48CC083307C
:1005700091052CF4009771F0019741F1C8C08430C7
:10058000910509F49DC084309105DCF0059709F4CC
:10059000A9C0BDC0809131010E9432029093380100
:1005A00080933701109232011092330189818823A0
:1005B00029F083E090E099878887ACC01986188677
:1005C000A9C081E090E099878887A4C08E819F812F
:1005D000C2969F838E83809130018630E8F58091AA
:1005E0003001882F90E08B5E9E4FFC01808181302E
:1005F00071F58D818823B9F08A81882319F48B8164
:10060000882351F0809130018F5F8093300182E028
:1006100090E0998788877EC01092300184E090E056
:100620009987888777C08A81882351F0809130012B
:100630008F5F8093300182E090E0998788876AC05D
:100640001092300184E090E09987888763C082E04F
:1006500090E0998788875EC080913601833039F4B5
:100660001F821E8285E090E09987888753C0809121
:1006700036018F5F809336011092300183E090E065
:100680009987888747C0809130018F5F80933001C0
:100690008E819F81C2969F838E8380913701909136
:1006A00038012E813F812817390728F482E090E035
:1006B000998788872FC081E090E0998788872AC032
:1006C00081E0809333018981882339F010923301CE
:1006D00083E090E0998788871DC084E090E0998747
:1006E000888718C081E0809332018C81882351F083
:1006F000809131018F5F8093310110923201198610
:10070000188608C085E090E09987888703C019861D
:1007100018860000888599858230910509F46DC09E
:10072000833091052CF4009771F0019709F166C0B0
:100730008430910509F44BC0843091057CF0059715
:1007400009F450C05BC08FE1809313011092340113
:100750008FE1809314011092350150C080E880939E
:10076000350187E08093130188E08093340146C00F
:1007700087E08093140180913501813069F48A818A
:10078000882319F48B81882339F080E88093350120
:1007900081E08093140132C080913501813021F4D1
:1007A00080E8809335012AC08A81882319F48B81DF
:1007B000882321F081E08093140103C087E08093B7
:1007C00014018091350186958093350117C01092F0
:1007D00035018FE180931401109234018FE18093F1
:1007E00013010CC0109235018FE180931401109217
:1007F00034018FE18093130101C000008885998541
:1008000029960FB6F894DEBF0FBECDBFDF91CF9112
:100810000895CF93DF9300D0CDB7DEB79A83898355
:1008200089819A8181309105C1F0823091051CF453
:10083000892B39F028C082309105A1F00397B9F0D7
:1008400022C080913301882329F081E090E09A83CF
:1008500089831CC01A82198219C082E090E09A83B1
:10086000898314C083E090E09A8389830FC08091CC
:100870003301882329F081E090E09A83898306C0C0
:100880001A82198203C01A821982000089819A8112
:100890008130910591F0823091051CF4892B39F05B
:1008A00020C08230910579F00397A1F01AC08FE142
:1008B00080931D011092390114C010921D0180E235
:1008C000809339010EC08FE080931D0180E18093F9
:1008D000390107C08FE080931D0188E080933901C2
:1008E000000089819A810F900F90DF91CF91089538
:1008F000CF93DF9300D0CDB7DEB79A838983898108
:100900009A818230910511F1833091052CF4009782
:1009100061F00197B1F035C08430910509F1843060
:100920009105CCF0059709F12CC080913201882304
:1009300029F081E090E09A83898326C01A82198287
:1009400023C082E090E09A8389831EC083E090E018
:100950009A83898319C084E090E09A83898314C0C4
:1009600085E090E09A8389830FC0809132018823CB
:1009700029F081E090E09A83898306C01A82198267
:1009800003C01A821982000089819A818230910500
:10099000E9F0833091052CF4009761F0019781F024
:1009A00030C08430910501F184309105B4F0059791
:1009B00011F127C08FE180931E0110923A0121C0EE
:1009C00010921E0180E480933A011BC087E180935E
:1009D0001E0180E280933A0114C08BE180931E01D6
:1009E00080E180933A010DC087E180931E0188E089
:1009F00080933A0106C010921E0184E080933A0170
:100A0000000089819A810F900F90DF91CF91089516
:100A1000CF93DF9300D000D0CDB7DEB79C838B831C
:100A200019821A828B819C81892B19F41C821B826A
:100A300003C01C821B8200008B819C81892BF9F4EE
:100A40009091340180912F01982B80913501982B42
:100A500080913A01982B80913901892B898390915B
:100A600013018091120198238091140198238091A1
:100A70001E01982380911D0189238A83000088E24A
:100A800090E02981FC0120838BE290E02A81FC0127
:100A900020838B819C810F900F900F900F90DF919E
:100AA000CF910895CF93DF93CDB7DEB72C970FB6D4
:100AB000F894DEBF0FBECDBF6D837E838F83988792
:100AC00029873A874B875C878D819E81AF81B88566
:100AD00029853A854B855C85BC01CD010E9487073D
:100AE000DC01CB0189839A83AB83BC8389819A81A2
:100AF000AB81BC81892B8A2B8B2B29F489859A8524
:100B0000AB85BC8511C089859A85AB85BC858D83F5
:100B10009E83AF83B88789819A81AB81BC818987A5
:100B20009A87AB87BC87D0CFBC01CD012C960FB67E
:100B3000F894DEBF0FBECDBFDF91CF9108950F9324
:100B40001F93CF93DF93CDB7DEB763970FB6F894BB
:100B5000DEBF0FBECDBF81E290E0FC01108282E2D9
:100B600090E02FEFFC01208387E290E02FEFFC0163
:100B7000208388E290E0FC0110828AE290E02FEF6F
:100B8000FC0120838BE290E0FC0110828AE0EFE11F
:100B9000F1E0DE011A9601900D928A95E1F785E069
:100BA00090E098878F838FEF8987898580933B01B9
:100BB00081E090E0A0E0B0E080933C0190933D01A3
:100BC000A0933E01B0933F0180913C0190913D0183
:100BD000A0913E01B0913F0180934001909341016B
:100BE000A0934201B09343018EE691E090934501BA
:100BF000809344018985809346018CE291E0A0E0D6
:100C0000B0E08093470190934801A0934901B093CD
:100C10004A018091470190914801A0914901B0910A
:100C20004A0180934B0190934C01A0934D01B093E6
:100C30004E018AE792E09093500180934F0189859D
:100C40008093510181E090E0A0E0B0E080935201F8
:100C500090935301A0935401B09355018091520198
:100C600090915301A0915401B09155018093560188
:100C700090935701A0935801B093590188E794E0ED
:100C800090935B0180935A01898580935C0181E098
:100C900090E0A0E0B0E080935D0190935E01A093AE
:100CA0005F01B093600180915D0190915E01A09120
:100CB0005F01B09160018093610190936201A09304
:100CC0006301B093640189E094E09093660180939E
:100CD000650189858093670181E090E0A0E0B0E044
:100CE0008093680190936901A0936A01B0936B01AE
:100CF0008091680190916901A0916A01B0916B01A6
:100D000080936C0190936D01A0936E01B0936F017D
:100D100088E095E090937101809370018A859B85AE
:100D2000FC0181819281A381B4818B839C83AD83FB
:100D3000BE8381E090E09A83898325C089819A816E
:100D4000880F991F9E012F5F3F4F820F931F0996B7
:100D5000FC0180819181FC01218132814381548198
:100D60008B819C81AD81BE81BC01CD010E94520569
:100D7000DC01CB018B839C83AD83BE8389819A8107
:100D800001969A83898329813A818F8198852817D2
:100D90003907A0F28B819C81AD81BE81BC01CD0160
:100DA0000E9467000E9495001A821982A0C0898162
:100DB0009A81880F991F9E012F5F3F4F820F931FCB
:100DC0000996FC0180819181FC0125813681478152
:100DD000508589819A81880F991FBE016F5F7F4F6F
:100DE000860F971F0996FC0180819181FC0181810A
:100DF0009281A381B481281739074A075B0709F05C
:100E000045C089819A81880F991F9E012F5F3F4FAE
:100E1000820F931F0996FC010081118189819A81BB
:100E2000880F991F9E012F5F3F4F820F931F0996D6
:100E3000FC0180819181FC012185328589819A8123
:100E4000880F991FAE014F5F5F4F840F951F099662
:100E5000FC0180819181FC018081082E000C990B9E
:100E6000F9010995F801808389819A81880F991F7A
:100E70009E012F5F3F4F820F931F0996FC018081D7
:100E80009181FC01158216821782108689819A81D0
:100E9000880F991F9E012F5F3F4F820F931F099666
:100EA000FC016081718189819A81880F991F9E015F
:100EB0002F5F3F4F820F931F0996FC018081918124
:100EC000FC0125813681478150858B819C81AD81D4
:100ED000BE81820F931FA41FB51FFB0185839683DC
:100EE000A783B08789819A8101969A838983298112
:100EF0003A818F8198852817390708F458CF000068
:100F000080912A018823E1F310922A014DCFA1E2BA
:100F10001A2EAA1BBB1BFD010DC0AA1FBB1FEE1F73
:100F2000FF1FA217B307E407F50720F0A21BB30BBE
:100F3000E40BF50B661F771F881F991F1A9469F73A
:100F400060957095809590959B01AC01BD01CF0196
:060F50000895F894FFCFA4
:100F56000100000000000002000000004501000042
:100F660000001F1F1F00000100000000001F1F3BA4
:0A0F760001460151015C0167010012
:00000001FF
