:100000000C944D000C946C000C946C000C946C00DF
:100010000C946C000C946C000C946C000C946C00B0
:100020000C946C000C946C000C946C000C946C00A0
:100030000C946C000C946C000C946C000C946C0090
:100040000C946C000C946C000C946C000C946C0080
:100050000C946C000C946C000C946C000C946C0070
:100060000C946C000C946C000C946C000C946C0060
:100070000C946C000C946C000C946C000C946C0050
:100080000C946C000C946C000C946C00BE00C500C9
:10009000E400EB0014011B01430111241FBECFEF4C
:1000A000D0E4DEBFCDBF11E0A0E0B1E0E8E7F3E0CF
:1000B00000E00BBF02C007900D92AE30B107D9F738
:1000C00021E0AEE0B1E001C01D92A031B207E1F73E
:1000D0000E9493010C94BA010C940000CF93DF931B
:1000E00000D01F92CDB7DEB789837B836A83898175
:1000F0008A3031F48A819B81BC018DE00E946E00C0
:1001000080EC90E0FC018081882F90E0807299273C
:10011000892BB1F386EC90E02981FC01208380E0FB
:1001200090E00F900F900F90DF91CF910895CF93B3
:10013000DF9300D0CDB7DEB780E290E0FC01808194
:10014000809583708A8388E290E0FC0180818983B6
:1001500080910E0190910F01CC01A0E0B0E040E051
:1001600050E026E030E0841B950B2817390708F48F
:1001700091C08A5B9F4FFC010C94B10181E090E03B
:1001800090930F0180930E0191C08A81813039F4E0
:1001900082E090E090930F0180930E0182C08A81EB
:1001A000823039F484E090E090930F0180930E0147
:1001B00078C08A81833009F074C086E090E0909323
:1001C0000F0180930E016DC083E090E090930F01CA
:1001D00080930E016BC08A81882339F481E090E01E
:1001E00090930F0180930E015EC08A81813039F4B3
:1001F00082E090E090930F0180930E0154C08A81B9
:10020000823039F485E090E090930F0180930E01E5
:100210004AC08A81833009F046C086E090E090931E
:100220000F0180930E013FC085E090E090930F0195
:1002300080930E013BC08A81882339F481E090E0ED
:1002400090930F0180930E0130C08A81813039F480
:1002500082E090E090930F0180930E0126C08A8186
:10026000823039F485E090E090930F0180930E0185
:100270001CC08A818330C9F486E090E090930F011E
:1002800080930E0112C081E090E090930F01809363
:100290000E010CC081E090E090930F0180930E015D
:1002A00005C0000003C0000001C0000080910E01E5
:1002B00090910F018330910511F18430910530F454
:1002C00081309105F1F0029751F022C085309105FF
:1002D000D1F08530910550F0069779F019C08981E9
:1002E000893098F489818F5F89830FC08981882341
:1002F00071F08981815089830AC0198209C0000088
:1003000007C0000005C0000003C0000001C00000DD
:1003100088E290E02981FC01208300000F900F907B
:10032000DF91CF910895CF93DF93CDB7DEB781E210
:1003300090E0FC01108282E290E02FEFFC0120832C
:1003400087E290E02FEFFC01208388E290E027E035
:10035000FC01208310920F0110920E010E94970061
:10036000FDCFEE0FFF1F0024001C0BBE0790F6917F
:08037000E02D0994F894FFCF81
:0E03780000000002000000006E000000000007
:00000001FF
