:100000000C9446000C9465000C9465000C946500FB
:100010000C9465000C9465000C9465000C946500CC
:100020000C9465000C9465000C9465000C946500BC
:100030000C9465000C94E3000C9465000C9465002E
:100040000C9465000C9465000C9465000C9465009C
:100050000C9465000C9465000C9465000C9465008C
:100060000C9465000C9465000C9465000C9465007C
:100070000C9465000C9465000C9465000C9465006C
:100080000C9465000C9465000C94650011241FBE4F
:10009000CFEFD0E4DEBFCDBF11E0A0E0B1E0ECECEB
:1000A000FEE000E00BBF02C007900D92A838B10738
:1000B000D9F721E0A8E8B1E001C01D92A13CB20748
:1000C000E1F70E947F050C9464070C940000CF9325
:1000D000DF9300D000D0CDB7DEB769837A838B83FE
:1000E0009C8389819A81AB81BC818093000190932C
:1000F0000101A0930201B09303018091000190914E
:100100000101A0910201B0910301809389019093B4
:100110008A01A0938B01B0938C0100000F900F9087
:100120000F900F90DF91CF910895CF93DF93CDB7CC
:10013000DEB781E890E02BE0FC01208388E890E0C6
:100140002DE730E0FC01318320838FE690E022E050
:10015000FC01208384E890E0FC01118210828091F0
:10016000000190910101A0910201B09103018093DF
:10017000890190938A01A0938B01B0938C018FE544
:1001800090E02FE530E0F90120812068FC01208318
:100190000000DF91CF910895CF93DF93CDB7DEB705
:1001A00081E890E0FC0110820000DF91CF9108957A
:1001B000CF93DF93CDB7DEB781E080938801000055
:1001C000DF91CF9108951F920F9200905F000F92E0
:1001D000112400905B000F922F933F934F935F93F6
:1001E0006F937F938F939F93AF93BF93EF93FF93FF
:1001F000CF93DF93CDB7DEB78091890190918A01CB
:10020000A0918B01B0918C010197A109B109809354
:10021000890190938A01A0938B01B0938C01809106
:10022000890190918A01A0918B01B0918C01892B59
:100230008A2B8B2B91F40E94D80080910001909121
:100240000101A0910201B091030180938901909373
:100250008A01A0938B01B0938C010000DF91CF91B4
:10026000FF91EF91BF91AF919F918F917F916F918E
:100270005F914F913F912F910F9000925B000F90F3
:1002800000925F000F901F901895CF93DF9300D0DE
:100290001F92CDB7DEB789837B836A8389818A30D9
:1002A00031F48A819B81BC018DE00E94450180EC84
:1002B00090E0FC018081882F90E080729927892B43
:1002C000B1F386EC90E02981FC01208380E090E08E
:1002D0000F900F900F90DF91CF910895CF93DF9300
:1002E00000D000D0CDB7DEB79C838B8380E290E056
:1002F000FC01808180958072898380E290E0FC011E
:100300008081809580718A838B819C818230910568
:1003100051F1833091052CF4009769F00197B1F009
:1003200056C084309105C9F1843091054CF1059790
:1003300009F440C04CC08A81882329F081E090E014
:100340009C838B8347C01C821B8244C08981882385
:1003500029F085E090E09C838B833CC082E090E0B4
:100360009C838B8337C08981882329F085E090E0C6
:100370009C838B832FC083E090E09C838B832AC077
:100380008981882329F085E090E09C838B8322C0BB
:1003900084E090E09C838B831DC08981882329F0B1
:1003A00085E090E09C838B8315C081E090E09C8386
:1003B0008B8310C08A81882329F081E090E09C83A0
:1003C0008B8308C085E090E09C838B8303C01C82F4
:1003D0001B8200008B819C8182309105F9F0833073
:1003E00091052CF4009761F0019789F031C08430B9
:1003F000910511F184309105C4F0059721F128C0D1
:100400008FEF809391018EE08093920121C080E470
:100410008093910181E1809392011AC080E28093E0
:1004200091018BE18093920113C080E1809391014F
:1004300081E1809392010CC084E08093910181E17D
:100440008093920105C010929101109292010000D8
:100450008B819C810F900F900F900F90DF91CF9127
:100460000895CF93DF93CDB7DEB727970FB6F894F3
:10047000DEBF0FBECDBF9F838E8380E290E0FC0184
:10048000808180958072898380E290E0FC01808188
:10049000882F90E08170992721E0892B09F020E0D6
:1004A0002A8380E290E0FC018081809582708B83BA
:1004B00080E290E0FC018081809584708C8380E2F2
:1004C00090E0FC018081809588708D838E819F8172
:1004D00082309105F1F0833091052CF4009749F0BA
:1004E000019791F03CC08330910579F1049791F127
:1004F00036C08981882329F081E090E09F838E8334
:1005000031C01F821E822EC082E090E09F838E83C6
:1005100029C08A81882319F48C81882329F083E0FB
:1005200090E09F838E8310C08B81882319F48D8186
:10053000882329F084E090E09F838E8305C082E0C9
:1005400090E09F838E830EC00DC082E090E09F8379
:100550008E8308C082E090E09F838E8303C01F8259
:100560001E8200008E819F8182309105B1F0833020
:10057000910534F4009709F443C0019739F041C064
:1005800083309105D9F0049751F13BC087E0809307
:10059000940180E88093930134C087E080939401B4
:1005A00080919301813021F480E88093930129C0E8
:1005B0008091930186958093930123C083E180937A
:1005C000940180919301813021F480E8809393011C
:1005D00018C08091930186958093930112C08FE09B
:1005E0008093940180919301813021F480E880937D
:1005F000930107C08091930186958093930101C078
:1006000000008E819F8127960FB6F894DEBF0FBE43
:10061000CDBFDF91CF910895CF93DF93CDB7DEB7F4
:100620002D970FB6F894DEBF0FBECDBF9D878C8788
:100630001D821E821A8219821C821B8280E290E037
:10064000FC018081809580728F8380E290E0FC01C4
:100650008081882F90E08170992721E0892B09F013
:1006600020E0288780E290E0FC0180818095827004
:10067000898780E290E0FC018081809584708A8780
:1006800080E290E0FC018081809588708B878C856A
:100690009D858830910509F492C0893091052CF42C
:1006A000009759F00197A1F00AC18930910509F42A
:1006B000C8C00A9709F400C102C18F81882329F0BC
:1006C00081E090E09D878C87FDC01D861C86FAC066
:1006D00080918D0190918E01C79708F064C0809140
:1006E0008D0190918E01880F991F8E5E9E4FFC01A7
:1006F000808191810197F1F48885882319F48A8596
:10070000882371F080918D0190918E0101969093D4
:100710008E0180938D0181E090E09D878C874EC093
:100720008E818F5F8E8381E08D8388E090E09D874E
:100730008C87C8C080918D0190918E01880F991F80
:100740008E5E9E4FFC01808191810297F1F4898534
:10075000882319F48B85882371F080918D01909105
:100760008E01019690938E0180938D0181E090E03F
:100770009D878C8723C08E818F5F8E8381E08D83E0
:1007800088E090E09D878C879DC080918D0190913D
:100790008E01019690938E0180938D0181E090E00F
:1007A0009D878C878FC010928E0110928D0181E001
:1007B0008D8389E090E09D878C8784C083C08E8183
:1007C000833020F01E821D861C867CC08D81813086
:1007D00029F481E090E09D878C8774C08D81823000
:1007E00029F482E090E09D878C876CC08D818330F6
:1007F00029F483E090E09D878C8764C08D818430EC
:1008000029F484E090E09D878C875CC08D818530E1
:1008100029F485E090E09D878C8754C08D818630D7
:1008200029F486E090E09D878C874CC08D818730CD
:1008300029F487E090E09D878C8744C01D861C8644
:1008400041C08D81813029F48AE090E09D878C87BA
:1008500039C08D81823029F483E090E09D878C87B8
:1008600031C08D81833029F484E090E09D878C87AE
:1008700029C08D81843029F485E090E09D878C87A4
:1008800021C08D81853029F486E090E09D878C879A
:1008900019C08D81863029F487E090E09D878C8790
:1008A00011C08D81873029F48AE090E09D878C8784
:1008B00009C01D861C8606C01D861C8603C01D86B9
:1008C0001C8600008C859D858830910509F45DC0EB
:1008D0008930910534F4009709F47AC0019749F002
:1008E00078C08930910509F45BC00A9709F464C0A7
:1008F00070C080E880938F018B819C81C797C0F581
:100900001A82198230C08B819C81880F991F8E5E5C
:100910009E4FFC0180819181019721F48EE18093AB
:10092000900112C08B819C81880F991F8E5E9E4F13
:10093000FC0180819181029721F487E180939001ED
:1009400003C08FE18093900180918F018695809301
:100950008F018B819C8101969C838B8389819A81F5
:1009600001969A83898389819A81089760F231C0C0
:100970001C821B828FE18093900110928F018FE186
:10098000809394011092930124C08FEF80938F0184
:10099000109290018FE1809394011092930119C0FD
:1009A0008FEF80938F0185E0809390018FE180939A
:1009B0009401109293010DC085E580938F0185E02D
:1009C000809390018FE1809394011092930101C074
:1009D00000008C859D852D960FB6F894DEBF0FBE66
:1009E000CDBFDF91CF910895CF93DF9300D000D09A
:1009F000CDB7DEB79C838B8319821A828B819C8151
:100A0000892B19F41C821B8203C01C821B820000EC
:100A10008B819C81892B99F4909193018091910114
:100A2000982B80918F01892B8983909194018091DB
:100A30009201982B80919001892B8A83000088E293
:100A400090E02981FC0120838BE290E02A81FC0167
:100A500020838B819C810F900F900F900F90DF91DE
:100A6000CF910895CF93DF93CDB7DEB72C970FB614
:100A7000F894DEBF0FBECDBF6D837E838F839887D2
:100A800029873A874B875C878D819E81AF81B885A6
:100A900029853A854B855C85BC01CD010E944207C2
:100AA000DC01CB0189839A83AB83BC8389819A81E2
:100AB000AB81BC81892B8A2B8B2B29F489859A8564
:100AC000AB85BC8511C089859A85AB85BC858D8336
:100AD0009E83AF83B88789819A81AB81BC818987E6
:100AE0009A87AB87BC87D0CFBC01CD012C960FB6BF
:100AF000F894DEBF0FBECDBFDF91CF9108950F9365
:100B00001F93CF93DF93CDB7DEB761970FB6F894FD
:100B1000DEBF0FBECDBF81E290E0FC01108282E219
:100B200090E02FEFFC01208387E290E02FEFFC01A3
:100B3000208388E290E0FC0110828AE290E02FEFAF
:100B4000FC0120838BE290E0FC01108288E0E0E869
:100B5000F1E0DE011A9601900D928A95E1F784E0AA
:100B600090E098878F838FEF89878985809395019F
:100B700081E090E0A0E0B0E080939601909397012F
:100B8000A0939801B093990180919601909197015B
:100B9000A0919801B091990180939A0190939B0143
:100BA000A0939C01B0939D018EE691E090939F01EC
:100BB00080939E0189858093A0018CE291E0A0E062
:100BC000B0E08093A1019093A201A093A301B09300
:100BD000A4018091A1019091A201A091A301B091E3
:100BE000A4018093A5019093A601A093A701B093BF
:100BF000A80181E392E09093AA018093A9018985DD
:100C00008093AB018CE291E0A0E0B0E08093AC0176
:100C10009093AD01A093AE01B093AF018091AC0170
:100C20009091AD01A091AE01B091AF018093B00160
:100C30009093B101A093B201B093B3018CE093E023
:100C40009093B5018093B40189858093B60181E0CA
:100C500090E0A0E0B0E08093B7019093B801A0933A
:100C6000B901B093BA018091B7019091B801A091F8
:100C7000B901B091BA018093BB019093BC01A093DC
:100C8000BD01B093BE0184EF94E09093C0018093C6
:100C9000BF018A859B85FC0181819281A381B481FA
:100CA0008B839C83AD83BE8381E090E09A838983AC
:100CB00025C089819A81880F991F9E012F5F3F4F20
:100CC000820F931F0996FC0180819181FC01218193
:100CD0003281438154818B819C81AD81BE81BC0175
:100CE000CD010E943205DC01CB018B839C83AD8357
:100CF000BE8389819A8101969A83898329813A8169
:100D00008F81988528173907A0F28B819C81AD814E
:100D1000BE81BC01CD010E9467000E9495001A822D
:100D20001982A0C089819A81880F991F9E012F5F27
:100D30003F4F820F931F0996FC0180819181FC0136
:100D4000258136814781508589819A81880F991F35
:100D5000BE016F5F7F4F860F971F0996FC01808150
:100D60009181FC0181819281A381B4812817390787
:100D70004A075B0709F045C089819A81880F991F4E
:100D80009E012F5F3F4F820F931F0996FC01008148
:100D9000118189819A81880F991F9E012F5F3F4F92
:100DA000820F931F0996FC0180819181FC012185AE
:100DB000328589819A81880F991FAE014F5F5F4FFD
:100DC000840F951F0996FC0180819181FC0180812F
:100DD000082E000C990BF9010995F801808389818F
:100DE0009A81880F991F9E012F5F3F4F820F931F9B
:100DF0000996FC0180819181FC011582168217827F
:100E0000108689819A81880F991F9E012F5F3F4F1D
:100E1000820F931F0996FC016081718189819A81FB
:100E2000880F991F9E012F5F3F4F820F931F0996D6
:100E3000FC0180819181FC012581368147815085AB
:100E40008B819C81AD81BE81820F931FA41FB51F32
:100E5000FB0185839683A783B08789819A81019658
:100E60009A83898329813A818F8198852817390748
:100E700008F458CF0000809188018823E1F3109294
:100E800088014DCFA1E21A2EAA1BBB1BFD010DC08C
:100E9000AA1FBB1FEE1FFF1FA217B307E407F5072A
:100EA00020F0A21BB30BE40BF50B661F771F881F06
:100EB000991F1A9469F760957095809590959B019C
:0C0EC000AC01BD01CF010895F894FFCFF4
:100ECC0001000000000000020000000045010000CD
:100EDC000000000000000100000000000000000005
:100EEC0000000000000001000000000000000000F5
:100EFC0002000000000000000000000000000000E4
:100F0C0000000100000000000000000000000000D4
:100F1C0000000000020000000000000000000000C3
:100F2C0000000100000000000000010000000000B3
:100F3C0000000000000002000000000000000000A3
:080F4C009501A001AB01B60103
:00000001FF
