:100000000C9446000C9465000C9465000C946500FB
:100010000C9465000C9465000C9465000C946500CC
:100020000C9465000C9465000C9465000C946500BC
:100030000C9465000C942A010C9465000C946500E6
:100040000C9465000C9465000C9465000C9465009C
:100050000C9465000C9465000C9465000C9465008C
:100060000C9465000C9465000C9465000C9465007C
:100070000C9465000C9465000C9465000C9465006C
:100080000C9465000C9465000C94650011241FBE4F
:10009000CFEFD0E4DEBFCDBF11E0A0E0B1E0E0E102
:1000A000F2E100E00BBF02C007900D92A635B10748
:1000B000D9F721E0A6E5B1E001C01D92A338B2074F
:1000C000E1F70E9471050C9406090C940000CF938F
:1000D000DF9300D01F92CDB7DEB789836A834B834D
:1000E0008B81882371F08A81282F30E081E090E0B5
:1000F00002C0880F991F2A95E2F7982F8981892BD2
:100100000EC08A81282F30E081E090E002C0880F85
:10011000991F2A95E2F7982F9095898189230F904E
:100120000F900F90DF91CF910895CF93DF9300D080
:10013000CDB7DEB789836A838A81282F30E081E0DA
:1001400090E002C0880F991F2A95E2F7982F8981C5
:1001500089230F900F90DF91CF910895CF93DF9374
:1001600000D000D0CDB7DEB769837A838B839C83C0
:1001700089819A81AB81BC818093000190930101B8
:10018000A0930201B09303018091000190910101BD
:10019000A0910201B09103018093570190935801FF
:1001A000A0935901B0935A0100000F900F900F9047
:1001B0000F90DF91CF910895CF93DF93CDB7DEB746
:1001C00081E890E02BE0FC01208388E890E02DE7B7
:1001D00030E0FC01318320838FE690E022E0FC01D7
:1001E000208384E890E0FC0111821082809100015C
:1001F00090910101A0910201B091030180935701F8
:1002000090935801A0935901B0935A018FE590E063
:100210002FE530E0F90120812068FC0120830000F7
:10022000DF91CF910895CF93DF93CDB7DEB781E80B
:1002300090E0FC0110820000DF91CF910895CF93F0
:10024000DF93CDB7DEB781E0809356010000DF91E8
:10025000CF9108951F920F9200905F000F9211248A
:1002600000905B000F922F933F934F935F936F9398
:100270007F938F939F93AF93BF93EF93FF93CF930E
:10028000DF93CDB7DEB78091570190915801A091CF
:100290005901B0915A010197A109B1098093570101
:1002A00090935801A0935901B0935A01809157013E
:1002B00090915801A0915901B0915A01892B8A2B34
:1002C0008B2B91F40E941F018091000190910101FC
:1002D000A0910201B09103018093570190935801BE
:1002E000A0935901B0935A010000DF91CF91FF9183
:1002F000EF91BF91AF919F918F917F916F915F919E
:100300004F913F912F910F9000925B000F900092C0
:100310005F000F901F9018950F931F93CF93DF935B
:10032000CDB7DEB708E210E040E064E08FEF0E9456
:100330006700F8018083000086E290E0FC01808184
:10034000809560E00E949500882311F081E3D3C07E
:1003500086E290E0FC018081809561E00E9495003A
:10036000882311F084E3C7C086E290E0FC0180811D
:10037000809562E00E949500882311F087E3BBC05E
:1003800086E290E0FC018081809563E00E94950008
:10039000882311F08AE2AFC008E210E040E065E097
:1003A0008FEF0E946700F8018083000086E290E0F2
:1003B000FC018081809560E00E949500882311F007
:1003C00082E399C086E290E0FC018081809561E043
:1003D0000E949500882311F085E38DC086E290E0AD
:1003E000FC018081809562E00E949500882311F0D5
:1003F00088E381C086E290E0FC018081809563E023
:100400000E949500882311F080E375C008E210E097
:1004100040E066E08FEF0E946700F80180830000F3
:1004200086E290E0FC018081809560E00E9495006A
:10043000882311F083E35FC086E290E0FC018081B5
:10044000809561E00E949500882311F086E353C0F7
:1004500086E290E0FC018081809562E00E94950038
:10046000882311F089E347C086E290E0FC01808197
:10047000809563E00E949500882311F083E23BC0E1
:1004800008E210E040E067E08FEF0E946700F801AB
:100490008083000086E290E0FC018081809560E02E
:1004A0000E949500882311F081E425C086E290E047
:1004B000FC018081809561E00E949500882311F005
:1004C00082E419C086E290E0FC018081809562E0C0
:1004D0000E949500882311F083E40DC086E290E02D
:1004E000FC018081809563E00E949500882311F0D3
:1004F00084E401C080E0DF91CF911F910F910895B6
:10050000CF93DF9300D01F92CDB7DEB789837B8373
:100510006A8389818A3031F48A819B81BC018DE0B4
:100520000E94800280EC90E0FC018081882F90E0A6
:1005300080729927892BB1F386EC90E02981FC0128
:10054000208380E090E00F900F900F90DF91CF918B
:1005500008950F931F93CF93DF9300D000D0CDB7B2
:10056000DEB769837A838B839C8380915E0190914F
:100570005F01A0916001B09161019C01AD016981B1
:100580007A818B819C810E943507882309F477C08A
:1005900020E030E0A90169817A818B819C810E94F1
:1005A0003507882351F481E990E021E930E0F90131
:1005B00020812870FC01208309C081E990E021E9B5
:1005C00030E0F90120812360FC01208328E539E334
:1005D00044E75FE369817A818B819C810E943507C2
:1005E000882344F488E990E02FEF3FEFFC0131834A
:1005F000208334C020E034E244EF56E469817A81FC
:100600008B819C810E949408181634F488E990E04C
:10061000FC011182108222C008E910E020E030E0E5
:1006200040E053E469817A818B819C810E94990822
:10063000DC01CB019C01AD0160E074E284EF9AE43F
:100640000E943A07DC01CB01BC01CD010E94AC073E
:10065000DC01CB010197F8019183808384E990E06C
:10066000FC011182108289819A81AB81BC818093C7
:100670005E0190935F01A0936001B093610100005F
:100680000F900F900F900F90DF91CF911F910F91CE
:100690000895CF93DF93CDB7DEB780E990E020E4F3
:1006A000FC01208381E990E02BE0FC01208360E0E5
:1006B00070E0CB010E94A9020000DF91CF91089564
:1006C000CF93DF93CDB7DEB780E990E0FC011082D5
:1006D00081E990E0FC0110820000DF91CF91089544
:1006E000CF93DF9300D01F92CDB7DEB79B838A8371
:1006F0000E948C0189838A819B8181309105C1F0A0
:10070000823091051CF4892B41F04BC08230910559
:1007100099F1039709F440C044C08981882319F4F2
:100720001B821A8241C081E090E09B838A833CC097
:100730008981282F30E080915B01882F90E08E5EC8
:100740009E4FFC018081082E000C990B2817390759
:1007500071F480915B01853029F483E090E09B8304
:100760008A8322C082E090E09B838A831DC010921E
:100770005B011B821A8218C08981882341F4809111
:100780005B018F5F80935B011B821A820DC082E048
:1007900090E09B838A8308C010925B011B821A82BF
:1007A00003C01B821A8200008A819B8181309105DF
:1007B00091F0823091051CF4892B79F011C08230C0
:1007C000910569F0039709F00BC085E290E021E004
:1007D000FC01208305C0000003C0000001C0000030
:1007E0008A819B810F900F900F90DF91CF91089598
:1007F000CF93DF9300D01F92CDB7DEB79B838A8360
:1008000083E290E0FC0180818095807889838A81F1
:100810009B81009719F0019761F016C089818823A8
:1008200029F081E090E09B838A8311C01B821A82A9
:100830000EC08981882329F081E090E09B838A8320
:1008400006C01B821A8203C01B821A8200008A81A2
:100850009B81009739F0019731F485E290E0FC012B
:10086000108201C000008A819B810F900F900F9031
:10087000DF91CF910895EF92FF920F931F93CF9343
:10088000DF9300D000D0CDB7DEB79C838B8380E2AE
:1008900090E0FC01808180958078898384E68A835A
:1008A0008B819C818230910501F1833091052CF47C
:1008B000009759F0019771F077C08330910509F4E2
:1008C0005CC0049709F463C06FC081E090E09C8332
:1008D0008B836FC08981882329F082E090E09C831C
:1008E0008B8367C01C821B8264C090915D018A81EA
:1008F000890F80935D0180915C01873068F0898168
:10090000882329F084E090E09C838B8352C081E0AF
:1009100090E09C838B834DC080915D01882F90E097
:10092000092E000CAA0BBB0BBC01CD010E94E407F1
:100930007B018C0180915C01882F90E0880F991FCA
:10094000880F991F8C5C9E4FFC0180819181A28150
:10095000B3819C01AD01C801B7010E9494088823AE
:100960003CF010925D0183E090E09C838B8321C07A
:1009700082E090E09C838B831CC080915C018F5F40
:1009800080935C0182E090E09C838B8312C089811C
:10099000882329F084E090E09C838B830AC081E067
:1009A00090E09C838B8305C081E090E09C838B83E7
:1009B00000008B819C8182309105C1F083309105CC
:1009C0002CF4009799F1019739F031C083309105EB
:1009D00009F1049729F12BC060E070E0CB010E947F
:1009E000A90210925C0110925D0121C080915C010E
:1009F000882F90E0880F991F880F991F885E9E4F5F
:100A0000FC0180819181A281B381BC01CD010E9452
:100A1000A9020DC060E070E0CB010E94A90207C0EE
:100A200060E070E0CB010E94A90201C000008B8150
:100A30009C810F900F900F900F90DF91CF911F919D
:100A40000F91FF90EF900895CF93DF93CDB7DEB76E
:100A50002C970FB6F894DEBF0FBECDBF6D837E839B
:100A60008F83988729873A874B875C878D819E8102
:100A7000AF81B88529853A854B855C85BC01CD0160
:100A80000E941307DC01CB0189839A83AB83BC836B
:100A900089819A81AB81BC81892B8A2B8B2B29F48C
:100AA00089859A85AB85BC8511C089859A85AB857A
:100AB000BC858D839E83AF83B88789819A81AB8102
:100AC000BC8189879A87AB87BC87D0CFBC01CD0119
:100AD0002C960FB6F894DEBF0FBECDBFDF91CF913D
:100AE00008950F931F93CF93DF93CDB7DEB72F9762
:100AF0000FB6F894DEBF0FBECDBF81E290E0FC01DF
:100B0000108282E290E02FEFFC01208384E290E0EB
:100B10002FE7FC01208385E290E020E8FC012083A0
:100B200087E290E020EFFC01208388E290E02FE054
:100B3000FC01208386E0E0E5F1E0DE011A960190F9
:100B40000D928A95E1F783E090E098878F838FEF8D
:100B5000898789858093620184E690E0A0E0B0E017
:100B60008093630190936401A0936501B093660143
:100B70008091630190916401A0916501B09166013B
:100B80008093670190936801A0936901B0936A0113
:100B900080E793E090936C0180936B01898580934B
:100BA0006D0184E690E0A0E0B0E080936E01909348
:100BB0006F01A0937001B093710180916E019091CB
:100BC0006F01A0917001B0917101809372019093B7
:100BD0007301A0937401B093750188EF93E0909333
:100BE00077018093760189858093780188EC90E085
:100BF000A0E0B0E08093790190937A01A0937B010B
:100C0000B0937C018091790190917A01A0917B0150
:100C1000B0917C0180937D0190937E01A0937F0130
:100C2000B09380018BE394E09093820180938101E3
:100C30008A859B85FC0181819281A381B4818B830C
:100C40009C83AD83BE8381E090E09A83898325C035
:100C500089819A81880F991F9E012F5F3F4F820FD4
:100C6000931F0996FC0180819181FC0121813281D1
:100C7000438154818B819C81AD81BE81BC01CD01BA
:100C80000E942405DC01CB018B839C83AD83BE8352
:100C900089819A8101969A83898329813A818F81FA
:100CA000988528173907A0F28B819C81AD81BE8180
:100CB000BC01CD010E94AE000E94DC000E944903ED
:100CC0001A821982A0C089819A81880F991F9E017A
:100CD0002F5F3F4F820F931F0996FC018081918106
:100CE000FC01258136814781508589819A81880F51
:100CF000991FBE016F5F7F4F860F971F0996FC01FA
:100D000080819181FC0181819281A381B481281726
:100D100039074A075B0709F045C089819A81880F26
:100D2000991F9E012F5F3F4F820F931F0996FC0171
:100D30000081118189819A81880F991F9E012F5FFF
:100D40003F4F820F931F0996FC0180819181FC0126
:100D50002185328589819A81880F991FAE014F5F65
:100D60005F4F840F951F0996FC0180819181FC01E2
:100D70008081082E000C990BF9010995F8018083F8
:100D800089819A81880F991F9E012F5F3F4F820FA3
:100D9000931F0996FC0180819181FC0115821682C6
:100DA0001782108689819A81880F991F9E012F5F73
:100DB0003F4F820F931F0996FC01608171818981E9
:100DC0009A81880F991F9E012F5F3F4F820F931FBB
:100DD0000996FC0180819181FC0125813681478142
:100DE00050858B819C81AD81BE81820F931FA41F92
:100DF000B51FFB0185839683A783B08789819A817C
:100E000001969A83898329813A818F819885281751
:100E1000390708F458CF0000809156018823E1F388
:100E2000109256014DCFA1E21A2EAA1BBB1BFD0149
:100E30000DC0AA1FBB1FEE1FFF1FA217B307E407B9
:100E4000F50720F0A21BB30BE40BF50B661F771F11
:100E5000881F991F1A9469F76095709580959095F1
:100E60009B01AC01BD01CF0108950E941F0808F449
:100E700081E008950E944E070C945A080E9453087E
:100E800058F00E944C0840F029F45F3F29F00C9480
:100E9000430851110C948E080C9449080E946B0869
:100EA00068F39923B1F3552391F3951B550BBB2799
:100EB000AA2762177307840738F09F5F5F4F220FDE
:100EC000331F441FAA1FA9F335D00E2E3AF0E0E8D5
:100ED00032D091505040E695001CCAF72BD0FE2F1F
:100EE00029D0660F771F881FBB1F261737074807B3
:100EF000AB07B0E809F0BB0B802DBF01FF2793586B
:100F00005F4F3AF09E3F510578F00C9443080C94E3
:100F10008E085F3FE4F3983ED4F386957795679506
:100F2000B795F7959F5FC9F7880F911D969587959F
:100F300097F90895E1E0660F771F881FBB1F6217BE
:100F400073078407BA0720F0621B730B840BBA0B7C
:100F5000EE1F88F7E09508950E94B3076894B111D9
:100F60000C948E0808950E94730888F09F5798F09B
:100F7000B92F9927B751B0F0E1F0660F771F881F9E
:100F8000991F1AF0BA95C9F714C0B13091F00E94B8
:100F90008D08B1E008950C948D08672F782F88276D
:100FA000B85F39F0B93FCCF3869577956795B395DF
:100FB000D9F73EF490958095709561957F4F8F4F4E
:100FC0009F4F0895E89409C097FB3EF49095809553
:100FD000709561957F4F8F4F9F4F9923A9F0F92FFF
:100FE00096E9BB279395F695879577956795B7957D
:100FF000F111F8CFFAF4BB0F11F460FF1BC06F5F63
:101000007F4F8F4F9F4F16C0882311F096E911C074
:10101000772321F09EE8872F762F05C0662371F095
:1010200096E8862F70E060E02AF09A95660F771FA9
:10103000881FDAF7880F9695879597F90895990F85
:101040000008550FAA0BE0E8FEEF16161706E80792
:10105000F907C0F012161306E407F50798F0621BB3
:10106000730B840B950B39F40A2661F0232B242B88
:10107000252B21F408950A2609F4A140A6958FEFA7
:10108000811D811D089597F99F6780E870E060E0F9
:1010900008959FEF80EC089500240A941616170611
:1010A00018060906089500240A9412161306140659
:1010B00005060895092E0394000C11F4882352F0BC
:1010C000BB0F40F4BF2B11F460FF04C06F5F7F4F74
:1010D0008F4F9F4F089557FD9058440F551F59F05B
:1010E0005F3F71F04795880F97FB991F61F09F3F15
:1010F00079F087950895121613061406551FF2CF3E
:101100004695F1DF08C0161617061806991FF1CF8D
:1011100086957105610508940895E894BB276627B4
:101120007727CB0197F908950E941F0808F48FEFE5
:1011300008950E94AC080C945A080E944C0838F09C
:101140000E94530820F0952311F00C9443080C944E
:10115000490811240C948E080E946B0870F3959F27
:10116000C1F3950F50E0551F629FF001729FBB279E
:10117000F00DB11D639FAA27F00DB11DAA1F649F3A
:101180006627B00DA11D661F829F2227B00DA11DED
:10119000621F739FB00DA11D621F839FA00D611D73
:1011A000221F749F3327A00D611D231F849F600D94
:1011B000211D822F762F6A2F11249F5750409AF0BD
:1011C000F1F088234AF0EE0FFF1FBB1F661F771F49
:1011D000881F91505040A9F79E3F510580F00C9414
:1011E00043080C948E085F3FE4F3983ED4F3869551
:1011F00077956795B795F795E7959F5FC1F7FE2BB4
:10120000880F911D9695879597F90895F894FFCFCB
:101210000100000000000002000000008002000049
:1012200000002331323334350000C443A4F0F643C8
:101230000000DC430000C4437BD492437BD4924340
:101240000000DC430000C8430000C84300004843DE
:10125000000016440000C843000048430000C84393
:0612600062016D0178013E
:00000001FF
