:100000000C9454000C9473000C9473000C947300C3
:100010000C9473000C9473000C9473000C94730094
:100020000C9473000C9473000C9473000C94730084
:100030000C9473000C94F1000C9473000C947300F6
:100040000C9473000C9473000C9473000C94730064
:100050000C9473000C9473000C9473000C94730054
:100060000C9473000C9473000C9473000C94730044
:100070000C9473000C9473000C9473000C94730034
:100080000C9473000C9473000C9473008A02B702F2
:10009000EB02AD02B2021F03440373039203C103D8
:1000A0007E038803EC03F70311241FBECFEFD0E4D7
:1000B000DEBFCDBF11E0A0E0B1E0E0EBFFE000E08B
:1000C0000BBF02C007900D92A233B107D9F721E010
:1000D000A2E3B1E001C01D92A737B207E1F70E9489
:1000E000C3050C94D6070C940000CF93DF9300D087
:1000F00000D0CDB7DEB769837A838B839C838981F7
:100100009A81AB81BC818093000190930101A093FF
:100110000201B09303018091000190910101A0912F
:100120000201B09103018093330190933401A093B5
:100130003501B093360100000F900F900F900F9093
:10014000DF91CF910895CF93DF93CDB7DEB781E8EC
:1001500090E02BE0FC01208388E890E02DE730E080
:10016000FC01318320838FE690E022E0FC012083B4
:1001700084E890E0FC01118210828091000190914E
:100180000101A0910201B09103018093330190938A
:100190003401A0933501B09336018FE590E02FE54F
:1001A00030E0F90120812068FC0120830000DF910C
:1001B000CF910895CF93DF93CDB7DEB781E890E07C
:1001C000FC0110820000DF91CF910895CF93DF935F
:1001D000CDB7DEB781E0809332010000DF91CF918F
:1001E00008951F920F9200905F000F9211240090CB
:1001F0005B000F922F933F934F935F936F937F9387
:100200008F939F93AF93BF93EF93FF93CF93DF931E
:10021000CDB7DEB78091330190913401A0913501C3
:10022000B09136010197A109B109809333019093F0
:100230003401A0933501B093360180913301909140
:100240003401A0913501B0913601892B8A2B8B2B7B
:1002500091F40E94E6008091000190910101A0912B
:100260000201B09103018093330190933401A09374
:100270003501B09336010000DF91CF91FF91EF91EE
:10028000BF91AF919F918F917F916F915F914F91AE
:100290003F912F910F9000925B000F9000925F00B2
:1002A0000F901F901895CF93DF9300D01F92CDB77A
:1002B000DEB789837B836A8389818A3031F48A81BE
:1002C0009B81BC018DE00E94530180EC90E0FC0119
:1002D0008081882F90E080729927892BB1F386EC7A
:1002E00090E02981FC01208380E090E00F900F9046
:1002F0000F90DF91CF910895CF93DF9300D000D07E
:10030000CDB7DEB79C838B8380E290E0FC018081D7
:1003100080958072898380E290E0FC0180818095E5
:1003200080718A838B819C818230910551F1833069
:1003300091052CF4009769F00197B1F056C0843014
:100340009105C9F1843091054CF1059709F440C03D
:100350004CC08A81882329F081E090E09C838B83C4
:1003600047C01C821B8244C08981882329F085E014
:1003700090E09C838B833CC082E090E09C838B83E5
:1003800037C08981882329F085E090E09C838B83A6
:100390002FC083E090E09C838B832AC089818823CF
:1003A00029F085E090E09C838B8322C084E090E07C
:1003B0009C838B831DC08981882329F085E090E090
:1003C0009C838B8315C081E090E09C838B8310C05D
:1003D0008A81882329F081E090E09C838B8308C088
:1003E00085E090E09C838B8303C01C821B8200000D
:1003F0008B819C8182309105F9F0833091052CF43A
:10040000009761F0019789F032C08430910511F1B5
:1004100084309105C4F0059721F129C08FEF8093B6
:1004200037018EE08093120122C080E4809337016F
:1004300081E1809312011BC080E2809337018BE140
:100440008093120114C080E18093370181E1809391
:1004500012010DC084E08093370181E18093120185
:1004600006C0109237018FE18093120100008B814A
:100470009C810F900F900F900F90DF91CF91089576
:10048000CF93DF93CDB7DEB727970FB6F894DEBFD3
:100490000FBECDBF9F838E8380E290E0FC01808100
:1004A00080958072898380E290E0FC018081882FB2
:1004B00090E08170992721E0892B09F020E02A83C0
:1004C00080E290E0FC018081809582708B8380E2E5
:1004D00090E0FC018081809584708C8380E290E0C4
:1004E000FC018081809580788D838E819F81092E8B
:1004F000000CAA0BBB0B40E050E026E030E0841B70
:10050000950B2817390708F4D6C08A5B9F4FFC016A
:100510000C94CD0710923A0110923B0189818823F7
:1005200021F080913901882319F08D81882329F0E9
:1005300083E090E09F838E830FC08981882349F0F8
:1005400080913901813029F484E090E09F838E838B
:1005500003C01F821E82B2C0B1C081E090E09F83C1
:100560008E83ACC082E090E09F838E83A7C0809191
:100570003801863058F580913801882F90E08B5EE5
:100580009E4FFC0180818130B9F48A81882319F45F
:100590008B81882351F0809138018F5F80933801DF
:1005A00081E090E09F838E8389C01092380185E0BE
:1005B00090E09F838E8382C0809138018F5F80930B
:1005C000380181E090E09F838E8378C086E090E0E0
:1005D0009F838E8373C080913801863058F5809157
:1005E0003801882F90E0835E9E4FFC01808181302E
:1005F000B9F48A81882319F48B81882351F0809182
:1006000038018F5F8093380182E090E09F838E8372
:1006100055C01092380185E090E09F838E834EC0D4
:10062000809138018F5F8093380182E090E09F8352
:100630008E8344C086E090E09F838E833FC081E03C
:1006400080933B018981882359F080913901882367
:1006500039F410923B0183E090E09F838E8313C0B6
:100660008981882359F080913901813039F41092C1
:100670003B0184E090E09F838E8305C085E090E09D
:100680009F838E831BC01AC081E080933A018C81C6
:10069000882361F0809139018F5F80933901109236
:1006A0003A01109238011F821E8208C086E090E055
:1006B0009F838E8303C01F821E8200008E819F81D4
:1006C000092E000CAA0BBB0B40E050E026E030E006
:1006D000841B950B2817390708F494C0835B9F4F40
:1006E000FC010C94CD078FE18093130110923C0123
:1006F0008FE18093140110923D0185C08FE08093BB
:10070000130188E080933C0180E880933D017BC029
:100710008FE08093130182E080933C0180E8809316
:100720003D0171C087E08093140180913D018130CB
:1007300069F48A81882319F48B81882339F080E851
:1007400080933D0181E0809314015DC080913D0163
:10075000813021F480E880933D0155C08A8188234F
:1007600019F48B81882321F081E08093140103C068
:1007700087E08093140180913D01869580933D012F
:1007800042C087E08093140180913D01813069F47B
:100790008A81882319F48B81882339F080E880933B
:1007A0003D0181E0809314012EC080913D01813094
:1007B00021F480E880933D0126C08A81882319F4C2
:1007C0008B81882319F081E08093140180913D0191
:1007D000869580933D0117C010923D018FE1809373
:1007E000140110923C018FE1809313010CC0109210
:1007F0003D018FE18093140110923C018FE18093C1
:10080000130101C000008E819F8127960FB6F894D6
:10081000DEBF0FBECDBFDF91CF910895CF93DF93A1
:1008200000D0CDB7DEB79A83898389819A818130E0
:100830009105C1F0823091051CF4892B39F028C054
:1008400082309105A1F00397B9F022C080913B015D
:10085000882329F081E090E09A8389831CC01A8262
:10086000198219C082E090E09A83898314C083E0E2
:1008700090E09A8389830FC080913B01882329F0FF
:1008800081E090E09A83898306C01A82198203C0AE
:100890001A821982000089819A818130910591F034
:1008A000823091051CF4892B39F020C082309105EB
:1008B00079F00397A1F01AC08FE18093250110927F
:1008C0003E0114C01092250180E280933E010EC0CB
:1008D0008FE08093250180E180933E0107C08FE087
:1008E0008093250188E080933E01000089819A81F0
:1008F0000F900F90DF91CF910895CF93DF9300D0A9
:10090000CDB7DEB79A83898389819A818230910538
:1009100061F1833091052CF4009769F00197B9F0EB
:1009200054C084309105C9F18430910554F1059784
:1009300009F43FC04AC080913A01882329F081E040
:1009400090E09A83898344C01A82198241C08091C1
:100950003A01882329F082E090E09A83898338C0A5
:1009600082E090E09A83898333C080913A018823A2
:1009700029F083E090E09A8389832AC01A82198241
:1009800027C080913A01882329F084E090E09A837F
:1009900089831EC01A8219821BC080913A01882364
:1009A00029F085E090E09A83898312C01A82198227
:1009B0000FC080913A01882329F081E090E09A836A
:1009C000898306C01A82198203C01A821982000024
:1009D00089819A8182309105E9F0833091052CF468
:1009E000009761F0019781F030C08430910501F1EA
:1009F00084309105B4F0059711F127C08FE1809301
:100A0000260110923F0121C01092260180E48093BC
:100A10003F011BC087E18093260180E280933F0164
:100A200014C08BE18093260180E180933F010DC0CB
:100A300087E18093260188E080933F0106C01092F1
:100A4000260184E080933F01000089819A810F9004
:100A50000F90DF91CF910895CF93DF9300D000D016
:100A6000CDB7DEB79C838B8319821A828B819C81E0
:100A7000892B19F41C821B8203C01C821B8200007C
:100A80008B819C81892BF9F490913C0180913701F5
:100A9000982B80913D01982B80913F01982B80915C
:100AA0003E01892B89839091130180911201982333
:100AB000809114019823809126019823809125012B
:100AC00089238A83000088E290E02981FC01208349
:100AD0008BE290E02A81FC0120838B819C810F9026
:100AE0000F900F900F90DF91CF910895CF93DF93E8
:100AF000CDB7DEB72C970FB6F894DEBF0FBECDBFD3
:100B00006D837E838F83988729873A874B875C879D
:100B10008D819E81AF81B88529853A854B855C851D
:100B2000BC01CD010E94AB07DC01CB0189839A8314
:100B3000AB83BC8389819A81AB81BC81892B8A2B51
:100B40008B2B29F489859A85AB85BC8511C0898555
:100B50009A85AB85BC858D839E83AF83B887898159
:100B60009A81AB81BC8189879A87AB87BC87D0CFBC
:100B7000BC01CD012C960FB6F894DEBF0FBECDBFE1
:100B8000DF91CF9108950F931F93CF93DF93CDB74C
:100B9000DEB763970FB6F894DEBF0FBECDBF81E21C
:100BA00090E0FC01108282E290E02FEFFC012083B4
:100BB00087E290E02FEFFC01208388E290E0FC01C7
:100BC00010828AE290E02FEFFC0120838BE290E01C
:100BD000FC0110828AE0E7E2F1E0DE011A96019062
:100BE0000D928A95E1F785E090E098878F838FEFEB
:100BF000898789858093400181E090E0A0E0B0E0A2
:100C00008093410190934201A0934301B09344012A
:100C10008091410190914201A0914301B091440122
:100C20008093450190934601A0934701B0934801FA
:100C30008CE791E090934A018093490189858093E4
:100C40004B0180E991E0A0E0B0E080934C019093EB
:100C50004D01A0934E01B0934F0180914C019091B2
:100C60004D01A0914E01B0914F018093500190939E
:100C70005101A0935201B093530180E492E090930C
:100C800055018093540189858093560181E090E05D
:100C9000A0E0B0E08093570190935801A0935901D0
:100CA000B0935A018091570190915801A091590138
:100CB000B0915A0180935B0190935C01A0935D0118
:100CC000B0935E018DE794E09093600180935F01A3
:100CD00089858093610181E090E0A0E0B0E080939D
:100CE000620190936301A0936401B09365018091C8
:100CF000620190916301A0916401B09165018093BC
:100D0000660190936701A0936801B09369018EE03A
:100D100094E090936B0180936A01898580936C01C4
:100D200081E090E0A0E0B0E080936D0190936E01CF
:100D3000A0936F01B093700180916D0190916E014D
:100D4000A0916F01B0917001809371019093720135
:100D5000A0937301B09374018CE295E090937601B7
:100D6000809375018A859B85FC0181819281A38195
:100D7000B4818B839C83AD83BE8381E090E09A83B2
:100D8000898325C089819A81880F991F9E012F5FD1
:100D90003F4F820F931F0996FC0180819181FC01D6
:100DA00021813281438154818B819C81AD81BE81BF
:100DB000BC01CD010E947605DC01CB018B839C83B5
:100DC000AD83BE8389819A8101969A838983298123
:100DD0003A818F81988528173907A0F28B819C81F1
:100DE000AD81BE81BC01CD010E9475000E94A300AF
:100DF0001A821982A0C089819A81880F991F9E0149
:100E00002F5F3F4F820F931F0996FC0180819181D4
:100E1000FC01258136814781508589819A81880F1F
:100E2000991FBE016F5F7F4F860F971F0996FC01C8
:100E300080819181FC0181819281A381B4812817F5
:100E400039074A075B0709F045C089819A81880FF5
:100E5000991F9E012F5F3F4F820F931F0996FC0140
:100E60000081118189819A81880F991F9E012F5FCE
:100E70003F4F820F931F0996FC0180819181FC01F5
:100E80002185328589819A81880F991FAE014F5F34
:100E90005F4F840F951F0996FC0180819181FC01B1
:100EA0008081082E000C990BF9010995F8018083C7
:100EB00089819A81880F991F9E012F5F3F4F820F72
:100EC000931F0996FC0180819181FC011582168295
:100ED0001782108689819A81880F991F9E012F5F42
:100EE0003F4F820F931F0996FC01608171818981B8
:100EF0009A81880F991F9E012F5F3F4F820F931F8A
:100F00000996FC0180819181FC0125813681478110
:100F100050858B819C81AD81BE81820F931FA41F60
:100F2000B51FFB0185839683A783B08789819A814A
:100F300001969A83898329813A818F819885281720
:100F4000390708F458CF0000809132018823E1F37B
:100F5000109232014DCFA1E21A2EAA1BBB1BFD013C
:100F60000DC0AA1FBB1FEE1FFF1FA217B307E40788
:100F7000F50720F0A21BB30BE40BF50B661F771FE0
:100F8000881F991F1A9469F76095709580959095C0
:100F90009B01AC01BD01CF010895EE0FFF1F00249E
:100FA000001C0BBE0790F691E02D0994F894FFCF3A
:100FB00001000000000000020000000053010000DA
:100FC00000001F1F1F0000010000000000000000C3
:100FD00000010000001F1F40014B01560161016C20
:020FE00001000E
:00000001FF
