:100000000C9468000C9487000C9487000C94870073
:100010000C9487000C9487000C9487000C94870044
:100020000C9487000C9487000C9487000C94870034
:100030000C9487000C9405010C9487000C948700A5
:100040000C9487000C9487000C9487000C94870014
:100050000C9487000C9487000C9487000C94870004
:100060000C9487000C9487000C9487000C948700F4
:100070000C9487000C9487000C9487000C948700E4
:100080000C9487000C9487000C9487009E02200338
:1000900054038803BC03F00324045804FD02020344
:1000A00007030C03110316031B038C04F704260536
:1000B000F50524064F067A06A506D006FB0631058F
:1000C0003B0545055D0575059B05C10526073107FF
:1000D00011241FBECFEFD0E4DEBFCDBF11E0A0E002
:1000E000B1E0E4E2F6E100E00BBF02C007900D9240
:1000F000A23AB107D9F721E0A2EAB1E001C01D920E
:10010000A73EB207E1F70E94FD080C94100B0C9477
:100110000000CF93DF9300D000D0CDB7DEB7698366
:100120007A838B839C8389819A81AB81BC81809304
:10013000000190930101A0930201B093030180910B
:10014000000190910101A0910201B09103018093FF
:10015000A3019093A401A093A501B093A601000070
:100160000F900F900F900F90DF91CF910895CF9344
:10017000DF93CDB7DEB781E890E02BE0FC01208370
:1001800088E890E02DE730E0FC01318320838FE6A2
:1001900090E022E0FC01208384E890E0FC011182E1
:1001A00010828091000190910101A0910201B09113
:1001B00003018093A3019093A401A093A501B093A0
:1001C000A6018FE590E02FE530E0F901208120685D
:1001D000FC0120830000DF91CF910895CF93DF933E
:1001E000CDB7DEB781E890E0FC0110820000DF911E
:1001F000CF910895CF93DF93CDB7DEB781E08093A1
:10020000A2010000DF91CF9108951F920F920090FC
:100210005F000F92112400905B000F922F933F9389
:100220004F935F936F937F938F939F93AF93BF93FE
:10023000EF93FF93CF93DF93CDB7DEB78091A30108
:100240009091A401A091A501B091A6010197A109E7
:10025000B1098093A3019093A401A093A501B09349
:10026000A6018091A3019091A401A091A501B09154
:10027000A601892B8A2B8B2B91F40E94FA00809186
:10028000000190910101A0910201B09103018093BE
:10029000A3019093A401A093A501B093A60100002F
:1002A000DF91CF91FF91EF91BF91AF919F918F918E
:1002B0007F916F915F914F913F912F910F9000929D
:1002C0005B000F9000925F000F901F901895CF93E6
:1002D000DF9300D01F92CDB7DEB789837B836A831B
:1002E00089818A3031F48A819B81BC018DE00E9432
:1002F000670180EC90E0FC018081882F90E08072A3
:100300009927892BB1F386EC90E02981FC012083A9
:1003100080E090E00F900F900F90DF91CF910895C3
:10032000CF93DF9300D000D0CDB7DEB79C838B8313
:1003300080E290E0FC01808180958072898380E278
:1003400090E0FC018081809580718A838B819C8103
:100350008230910551F1833091052CF4009769F0BA
:100360000197B1F056C084309105C9F184309105F0
:100370004CF1059709F440C04CC08A81882329F0CC
:1003800081E090E09C838B8347C01C821B8244C029
:100390008981882329F085E090E09C838B833CC091
:1003A00082E090E09C838B8337C08981882329F089
:1003B00085E090E09C838B832FC083E090E09C835A
:1003C0008B832AC08981882329F085E090E09C8373
:1003D0008B8322C084E090E09C838B831DC0898145
:1003E000882329F085E090E09C838B8315C081E011
:1003F00090E09C838B8310C08A81882329F081E060
:1004000090E09C838B8308C085E090E09C838B8385
:1004100003C01C821B8200008B819C81823091056D
:10042000F9F0833091052CF4009761F0019789F081
:1004300032C08430910511F184309105C4F00597E4
:1004400021F129C08FEF8093A7018EE080931201E4
:1004500022C080E48093A70181E1809312011BC038
:1004600080E28093A7018BE18093120114C080E1A8
:100470008093A70181E1809312010DC084E08093F5
:10048000A70181E18093120106C01092A7018FE1BC
:100490008093120100008B819C810F900F900F9030
:1004A0000F90DF91CF910895CF93DF93CDB7DEB753
:1004B00027970FB6F894DEBF0FBECDBF9F838E8304
:1004C00080E290E0FC01808180958072898380E2E7
:1004D00090E0FC018081882F90E08170992721E0D5
:1004E000892B09F020E02A8380E290E0FC018081E2
:1004F000809582708B8380E290E0FC018081809502
:1005000084708C8380E290E0FC018081809580780B
:100510008D838E819F81092E000CAA0BBB0B40E0BE
:1005200050E020E130E0841B950B2817390708F4D0
:1005300075C28A5B9F4FFC010C94070B1092AA01B5
:100540001092AB018981882321F08091A901882331
:1005500019F08D81882329F088E090E09F838E83B5
:100560004BC08981882349F08091A901813029F409
:1005700089E090E09F838E833FC08981882349F082
:100580008091A901823029F48AE090E09F838E83D4
:1005900033C08981882349F08091A901833029F4EF
:1005A0008BE090E09F838E8327C08981882349F068
:1005B0008091A901843029F48CE090E09F838E83A0
:1005C0001BC08981882349F08091A901853029F4D5
:1005D0008DE090E09F838E830FC08981882349F04E
:1005E0008091A901863029F48EE090E09F838E836C
:1005F00003C01F821E8215C214C281E090E09F8357
:100600008E830FC282E090E09F838E830AC283E0D4
:1006100090E09F838E8305C284E090E09F838E8369
:1006200000C285E090E09F838E83FBC186E090E06E
:100630009F838E83F6C187E090E09F838E83F1C114
:100640008091A801863058F58091A801882F90E00C
:100650008B5E9E4FFC0180818130B9F48A818823B2
:1006600019F48B81882351F08091A8018F5F8093CA
:10067000A80181E090E09F838E83D3C11092A801EE
:100680008FE090E09F838E83CCC18091A8018F5F23
:100690008093A80181E090E09F838E83C2C180E1B6
:1006A00090E09F838E83BDC18091A801863058F56C
:1006B0008091A801882F90E0835E9E4FFC0180818D
:1006C0008130B9F48A81882319F48B81882351F011
:1006D0008091A8018F5F8093A80182E090E09F83C2
:1006E0008E839FC11092A8018FE090E09F838E833C
:1006F00098C18091A8018F5F8093A80182E090E06B
:100700009F838E838EC180E190E09F838E8389C119
:100710008091A8018C3058F58091A801882F90E035
:100720008B5D9E4FFC0180818130B9F48A818823E2
:1007300019F48B81882351F08091A8018F5F8093F9
:10074000A80183E090E09F838E836BC11092A80183
:100750008FE090E09F838E8364C18091A8018F5FBA
:100760008093A80183E090E09F838E835AC180E14B
:1007700090E09F838E8355C18091A8018C3058F5FD
:100780008091A801882F90E08B5C9E4FFC018081B6
:100790008130B9F48A81882319F48B81882351F040
:1007A0008091A8018F5F8093A80184E090E09F83EF
:1007B0008E8337C11092A8018FE090E09F838E83D3
:1007C00030C18091A8018F5F8093A80184E090E000
:1007D0009F838E8326C180E190E09F838E8321C119
:1007E0008091A801823158F58091A801882F90E06E
:1007F0008B5B9E4FFC0180818130B9F48A81882314
:1008000019F48B81882351F08091A8018F5F809328
:10081000A80185E090E09F838E8303C11092A80118
:100820008FE090E09F838E83FCC08091A8018F5F52
:100830008093A80185E090E09F838E83F2C080E1E1
:1008400090E09F838E83EDC08091A801823158F59E
:100850008091A801882F90E0835A9E4FFC018081EF
:100860008130B9F48A81882319F48B81882351F06F
:100870008091A8018F5F8093A80186E090E09F831C
:100880008E83CFC01092A8018FE090E09F838E836B
:10089000C8C08091A8018F5F8093A80186E090E096
:1008A0009F838E83BEC080E190E09F838E83B9C01A
:1008B0008091A801883158F58091A801882F90E097
:1008C0008B589E4FFC0180818130B9F48A81882346
:1008D00019F48B81882351F08091A8018F5F809358
:1008E000A80187E090E09F838E839BC01092A801AF
:1008F0008FE090E09F838E8394C08091A8018F5FEA
:100900008093A80187E090E09F838E838AC080E176
:1009100090E09F838E8385C081E08093AB018981C5
:10092000882359F08091A901882339F41092AB01F2
:1009300088E090E09F838E8359C08981882359F095
:100940008091A901813039F41092AB0189E090E0E7
:100950009F838E834BC08981882359F08091A901A0
:10096000823039F41092AB018AE090E09F838E834D
:100970003DC08981882359F08091A901833039F4E1
:100980001092AB018BE090E09F838E832FC0898112
:10099000882359F08091A901843039F41092AB0179
:1009A0008CE090E09F838E8321C08981882359F059
:1009B0008091A901853039F41092AB018DE090E06F
:1009C0009F838E8313C08981882359F08091A90168
:1009D000863039F41092AB018EE090E09F838E83D5
:1009E00005C08FE090E09F838E831BC01AC081E01A
:1009F0008093AA018C81882361F08091A9018F5F87
:100A00008093A9011092AA011092A8011F821E8250
:100A100008C080E190E09F838E8303C01F821E8206
:100A200000008E819F81092E000CAA0BBB0B40E0B9
:100A300050E020E130E0841B950B2817390708F4BB
:100A40001BC2895A9F4FFC010C94070B8FE18093C6
:100A500013011092AC018FE1809314011092AD014B
:100A60000CC28FE08093130188E08093AC0180E892
:100A70008093AD0102C28FE08093130182E08093E6
:100A8000AC0180E88093AD01F8C18091A801863067
:100A900050F48FE08093130184E08093AC0180E8F0
:100AA0008093AD01EAC18FE08093130180E18093D0
:100AB000AC0180E88093AD01E0C18091A80186304F
:100AC00050F48FE08093130182E08093AC0180E8C2
:100AD0008093AD01D2C18FE08093130180E28093B7
:100AE000AC0180E88093AD01C8C18091A801863037
:100AF00050F48FE08093130188E08093AC0180E88C
:100B00008093AD01BAC18091A8018C3050F48FE080
:100B10008093130180E28093AC0180E88093AD0163
:100B2000ACC18FE08093130184E08093AC0180E836
:100B30008093AD01A2C18091A801863050F48FE06E
:100B40008093130180E18093AC0180E88093AD0134
:100B500094C18091A8018C3050F48FE080931301F0
:100B600088E08093AC0180E88093AD0186C18FE07E
:100B70008093130180E48093AC0180E88093AD0101
:100B80007CC18091A801863050F48FE080931301DE
:100B900088E08093AC0180E88093AD016EC18091C4
:100BA000A8018C3050F48FE08093130180E1809392
:100BB000AC0180E88093AD0160C18091A8018231D1
:100BC00050F48FE08093130180E28093AC0180E8C1
:100BD0008093AD0152C18FE08093130182E0809336
:100BE000AC0180E88093AD0148C187E08093140197
:100BF0008091AD01813069F48A81882319F48B8159
:100C0000882339F080E88093AD0181E0809314015E
:100C100034C18091AD01813021F480E88093AD0131
:100C20002CC18A81882319F48B81882321F081E0EB
:100C30008093140103C087E0809314018091AD017B
:100C400086958093AD0119C187E08093140180914E
:100C5000AD01813069F48A81882319F48B8188235E
:100C600039F080E88093AD0181E08093140105C1E3
:100C70008091AD01813021F480E88093AD01FDC009
:100C80008A81882319F48B81882319F081E080936D
:100C900014018091AD0186958093AD01EEC087E08F
:100CA000809314018091AD01813069F48A81882399
:100CB00019F48B81882339F080E88093AD0181E0BD
:100CC00080931401DAC08091AD01813021F480E875
:100CD0008093AD01D2C08A81882319F48B81882347
:100CE00019F081E0809314018091AD018695809385
:100CF000AD01C3C087E0809314018091AD018130C4
:100D000069F48A81882319F48B81882339F080E87B
:100D10008093AD0181E080931401AFC08091AD015B
:100D2000813021F480E88093AD01A7C08A818823B7
:100D300019F48B81882319F081E08093140180914C
:100D4000AD0186958093AD0198C087E08093140132
:100D50008091AD01813069F48A81882319F48B81F7
:100D6000882339F080E88093AD0181E080931401FD
:100D700084C08091AD01813021F480E88093AD0181
:100D80007CC08A81882319F48B81882319F081E043
:100D9000809314018091AD0186958093AD016DC063
:100DA00087E0809314018091AD01813069F48A81DC
:100DB000882319F48B81882339F080E88093AD0172
:100DC00081E08093140159C08091AD01813021F4FC
:100DD00080E88093AD0151C08A81882319F48B810A
:100DE000882319F081E0809314018091AD018695EC
:100DF0008093AD0142C087E0809314018091AD01E2
:100E0000813069F48A81882319F48B81882339F031
:100E100080E88093AD0181E0809314012EC0809121
:100E2000AD01813021F480E88093AD0126C08A8134
:100E3000882319F48B81882319F081E080931401B1
:100E40008091AD0186958093AD0117C01092AD01E0
:100E50008FE1809314011092AC018FE18093130114
:100E60000CC01092AD018FE1809314011092AC017F
:100E70008FE18093130101C000008E819F8127962E
:100E80000FB6F894DEBF0FBECDBFDF91CF910895AE
:100E9000CF93DF9300D0CDB7DEB79A838983898162
:100EA0009A8181309105C1F0823091051CF4892B23
:100EB00039F028C082309105A1F00397B9F022C023
:100EC0008091AB01882329F081E090E09A838983A7
:100ED0001CC01A82198219C082E090E09A8389832B
:100EE00014C083E090E09A8389830FC08091AB01A6
:100EF000882329F081E090E09A83898306C01A82D2
:100F0000198203C01A821982000089819A81813076
:100F1000910591F0823091051CF4892B39F020C0A5
:100F20008230910579F00397A1F01AC08FE1809388
:100F300095011092AE0114C01092950180E2809349
:100F4000AE010EC08FE08093950180E18093AE01E9
:100F500007C08FE08093950188E08093AE01000088
:100F600089819A810F900F90DF91CF910895CF934F
:100F7000DF9300D0CDB7DEB79A83898389819A81C8
:100F80008230910561F1833091052CF4009769F06E
:100F90000197B9F054C084309105C9F184309105AE
:100FA00054F1059709F43FC04AC08091AA018823F3
:100FB00029F081E090E09A83898344C01A821982E3
:100FC00041C08091AA01882329F082E090E09A83B1
:100FD000898338C082E090E09A83898333C080910E
:100FE000AA01882329F083E090E09A8389832AC0AC
:100FF0001A82198227C08091AA01882329F084E0EF
:1010000090E09A8389831EC01A8219821BC0809146
:10101000AA01882329F085E090E09A83898312C091
:101020001A8219820FC08091AA01882329F081E0D9
:1010300090E09A83898306C01A82198203C01A82BB
:101040001982000089819A8182309105E9F083300C
:1010500091052CF4009761F0019781F030C0843045
:10106000910501F184309105B4F0059711F127C085
:101070008FE1809396011092AF0121C010929601EA
:1010800080E48093AF011BC087E18093960180E2EA
:101090008093AF0114C08BE18093960180E180932F
:1010A000AF010DC087E18093960188E08093AF0186
:1010B00006C01092960184E08093AF010000898100
:1010C0009A810F900F90DF91CF910895CF93DF9386
:1010D00000D000D0CDB7DEB79C838B8319821A82F3
:1010E0008B819C81892B19F41C821B8203C01C827A
:1010F0001B8200008B819C81892BF9F49091AC01BB
:101100008091A701982B8091AD01982B8091AF0120
:10111000982B8091AE01892B898390911301809146
:1011200012019823809114019823809196019823AD
:101130008091950189238A83000088E290E02981CB
:10114000FC0120838BE290E02A81FC0120838B81CB
:101150009C810F900F900F900F90DF91CF91089589
:10116000CF93DF93CDB7DEB72C970FB6F894DEBFE1
:101170000FBECDBF6D837E838F83988729873A8783
:101180004B875C878D819E81AF81B88529853A85A3
:101190004B855C85BC01CD010E94E50ADC01CB01D9
:1011A00089839A83AB83BC8389819A81AB81BC811B
:1011B000892B8A2B8B2B29F489859A85AB85BC8555
:1011C00011C089859A85AB85BC858D839E83AF834D
:1011D000B88789819A81AB81BC8189879A87AB87DF
:1011E000BC87D0CFBC01CD012C960FB6F894DEBFE2
:1011F0000FBECDBFDF91CF9108950F931F93CF9373
:10120000DF93CDB7DEB763970FB6F894DEBF0FBE9E
:10121000CDBF81E290E0FC01108282E290E02FEFEE
:10122000FC01208387E290E02FEFFC01208388E21D
:1012300090E0FC0110828AE290E02FEFFC01208315
:101240008BE290E0FC0110828AE0E7E9F1E0DE0148
:101250001A9601900D928A95E1F785E090E09887C3
:101260008F838FEF898789858093B00181E090E03B
:10127000A0E0B0E08093B1019093B201A093B301DC
:10128000B093B4018091B1019091B201A091B301EA
:10129000B091B4018093B5019093B601A093B701CA
:1012A000B093B80180E991E09093BA018093B901BD
:1012B00089858093BB018CE291E0A0E0B0E080934F
:1012C000BC019093BD01A093BE01B093BF0180917A
:1012D000BC019091BD01A091BE01B091BF0180936E
:1012E000C0019093C101A093C201B093C30184E5F2
:1012F00092E09093C5018093C40189858093C601D3
:1013000081E090E0A0E0B0E08093C7019093C80135
:10131000A093C901B093CA018091C7019091C801FF
:10132000A091C901B091CA018093CB019093CC01E7
:10133000A093CD01B093CE0187EB97E09093D001BD
:101340008093CF0189858093D10181E090E0A0E076
:10135000B0E08093D2019093D301A093D401B093D5
:10136000D5018091D2019091D301A091D401B09187
:10137000D5018093D6019093D701A093D801B09363
:10138000D90188E497E09093DB018093DA018985A5
:101390008093DC0181E090E0A0E0B0E08093DD018B
:1013A0009093DE01A093DF01B093E0018091DD0115
:1013B0009091DE01A091DF01B091E0018093E10105
:1013C0009093E201A093E301B093E40186E698E0F4
:1013D0009093E6018093E5018A859B85FC018181DC
:1013E0009281A381B4818B839C83AD83BE8381E092
:1013F00090E09A83898325C089819A81880F991FFB
:101400009E012F5F3F4F820F931F0996FC01808141
:101410009181FC0121813281438154818B819C81A6
:10142000AD81BE81BC01CD010E94B008DC01CB01C1
:101430008B839C83AD83BE8389819A8101969A8335
:10144000898329813A818F81988528173907A0F2ED
:101450008B819C81AD81BE81BC01CD010E94890040
:101460000E94B7001A821982A0C089819A81880FD0
:10147000991F9E012F5F3F4F820F931F0996FC011A
:1014800080819181FC012581368147815085898148
:101490009A81880F991FBE016F5F7F4F860F971F3C
:1014A0000996FC0180819181FC0181819281A38157
:1014B000B481281739074A075B0709F045C08981BD
:1014C0009A81880F991F9E012F5F3F4F820F931FB4
:1014D0000996FC010081118189819A81880F991FE9
:1014E0009E012F5F3F4F820F931F0996FC01808161
:1014F0009181FC012185328589819A81880F991F0C
:10150000AE014F5F5F4F840F951F0996FC018081EC
:101510009181FC018081082E000C990BF90109953D
:10152000F801808389819A81880F991F9E012F5F1E
:101530003F4F820F931F0996FC0180819181FC012E
:10154000158216821782108689819A81880F991FC9
:101550009E012F5F3F4F820F931F0996FC01608110
:10156000718189819A81880F991F9E012F5F3F4F5A
:10157000820F931F0996FC0180819181FC012581D6
:101580003681478150858B819C81AD81BE81820FE0
:10159000931FA41FB51FFB0185839683A783B08784
:1015A00089819A8101969A83898329813A818F81E1
:1015B00098852817390708F458CF00008091A201B8
:1015C0008823E1F31092A2014DCFA1E21A2EAA1BAB
:1015D000BB1BFD010DC0AA1FBB1FEE1FFF1FA217E3
:1015E000B307E407F50720F0A21BB30BE40BF50BE0
:1015F000661F771F881F991F1A9469F76095709569
:10160000809590959B01AC01BD01CF010895EE0F2F
:10161000FF1F0024001C0BBE0790F691E02D0994DB
:04162000F894FFCF6C
:10162400010000000000000200000000670100004B
:1016340000001F1F1F000001000000000000000048
:101644000001000000000000010000000000010093
:101654000000000000000000000000010000000184
:101664000000000000000000000100000001000074
:101674000000000000000000000001000000000065
:101684000100000000000000000100000000010053
:101694000000000000000000000001000000000144
:1016A4000000000000010000000000000000000035
:1016B40000010000001F1FB001BB01C601D101DC05
:0216C400010023
:00000001FF
