:100000000C944D000C946C000C946C000C946C00DF
:100010000C946C000C946C000C946C000C946C00B0
:100020000C946C000C946C000C946C000C946C00A0
:100030000C946C000C946C000C946C000C946C0090
:100040000C946C000C946C000C946C000C946C0080
:100050000C946C000C946C000C946C000C946C0070
:100060000C946C000C946C000C946C000C946C0060
:100070000C946C000C946C000C946C000C946C0050
:100080000C946C000C946C000C946C00BE00C500C9
:10009000E400EB0014011B01430111241FBECFEF4C
:1000A000D0E4DEBFCDBF11E0A0E0B1E0ECE8F3E0CA
:1000B00000E00BBF02C007900D92AE30B107D9F738
:1000C00021E0AEE0B1E001C01D92A031B207E1F73E
:1000D0000E949D010C94C4010C940000CF93DF9307
:1000E00000D01F92CDB7DEB789837B836A83898175
:1000F0008A3031F48A819B81BC018DE00E946E00C0
:1001000080EC90E0FC018081882F90E0807299273C
:10011000892BB1F386EC90E02981FC01208380E0FB
:1001200090E00F900F900F90DF91CF910895CF93B3
:10013000DF9300D0CDB7DEB780E290E0FC01808194
:10014000809583708A8388E290E0FC0180818983B6
:1001500080910E0190910F01CC01A0E0B0E040E051
:1001600050E026E030E0841B950B2817390708F48F
:100170009BC08A5B9F4FFC010C94BB0181E090E027
:1001800090930F0180930E019BC08A81813039F4D6
:1001900082E090E090930F0180930E018CC08A81E1
:1001A000823039F484E090E090930F0180930E0147
:1001B00082C08A81833009F07EC086E090E090930F
:1001C0000F0180930E0177C083E090E090930F01C0
:1001D00080930E0175C08A81882339F481E090E014
:1001E00090930F0180930E0168C08A81813039F4A9
:1001F00083E090E090930F0180930E015EC08A81AE
:10020000823039F484E090E090930F0180930E01E6
:1002100054C08A81833009F050C086E090E090930A
:100220000F0180930E0149C085E090E090930F018B
:1002300080930E0145C08A81882339F481E090E0E3
:1002400090930F0180930E013AC08A81813039F476
:1002500085E090E090930F0180930E0130C08A8179
:10026000823039F482E090E090930F0180930E0188
:1002700026C08A81833019F586E090E090930F01C3
:1002800080930E011CC08A81882339F481E090E0BC
:1002900090930F0180930E0113C086E090E090933D
:1002A0000F0180930E010CC081E090E090930F014C
:1002B00080930E0105C0000003C0000001C00000D3
:1002C00080910E0190910F018330910511F18430DE
:1002D000910530F481309105F1F0029751F022C080
:1002E00085309105D1F08530910550F0069779F071
:1002F00019C08981893098F489818F5F89830FC003
:100300008981882371F08981815089830AC019828B
:1003100009C0000007C0000005C0000003C00000C5
:1003200001C0000088E290E02981FC0120830000E8
:100330000F900F90DF91CF910895CF93DF93CDB7BA
:10034000DEB781E290E0FC01108282E290E02FEFC4
:10035000FC01208387E290E02FEFFC01208388E2FC
:1003600090E027E0FC01208310920F0110920E0113
:100370000E949700FDCFEE0FFF1F0024001C0BBE54
:0C0380000790F691E02D0994F894FFCF4F
:0E038C0000000002000000006E0000000000F3
:00000001FF
