:100000000C9446000C9465000C9465000C946500FB
:100010000C9465000C9465000C9465000C946500CC
:100020000C9465000C9465000C9465000C946500BC
:100030000C9465000C94E3000C9465000C9465002E
:100040000C9465000C9465000C9465000C9465009C
:100050000C9465000C9465000C9465000C9465008C
:100060000C9465000C9465000C9465000C9465007C
:100070000C9465000C9465000C9465000C9465006C
:100080000C9465000C9465000C94650011241FBE4F
:10009000CFEFD0E4DEBFCDBF11E0A0E0B1E0E0EAF9
:1000A000FAE000E00BBF02C007900D92A831B10743
:1000B000D9F721E0A8E1B1E001C01D92A434B20754
:1000C000E1F70E948E030C944E050C940000CF9330
:1000D000DF9300D000D0CDB7DEB769837A838B83FE
:1000E0009C8389819A81AB81BC818093000190932C
:1000F0000101A0930201B09303018091000190914E
:100100000101A0910201B091030180931901909324
:100110001A01A0931B01B0931C0100000F900F90D7
:100120000F900F90DF91CF910895CF93DF93CDB7CC
:10013000DEB781E890E02BE0FC01208388E890E0C6
:100140002DE730E0FC01318320838FE690E022E050
:10015000FC01208384E890E0FC01118210828091F0
:10016000000190910101A0910201B09103018093DF
:10017000190190931A01A0931B01B0931C018FE504
:1001800090E02FE530E0F90120812068FC01208318
:100190000000DF91CF910895CF93DF93CDB7DEB705
:1001A00081E890E0FC0110820000DF91CF9108957A
:1001B000CF93DF93CDB7DEB781E0809318010000C5
:1001C000DF91CF9108951F920F9200905F000F92E0
:1001D000112400905B000F922F933F934F935F93F6
:1001E0006F937F938F939F93AF93BF93EF93FF93FF
:1001F000CF93DF93CDB7DEB78091190190911A01AB
:10020000A0911B01B0911C010197A109B109809334
:10021000190190931A01A0931B01B0931C018091C6
:10022000190190911A01A0911B01B0911C01892B19
:100230008A2B8B2B91F40E94D80080910001909121
:100240000101A0910201B0910301809319019093E3
:100250001A01A0931B01B0931C010000DF91CF9104
:10026000FF91EF91BF91AF919F918F917F916F918E
:100270005F914F913F912F910F9000925B000F90F3
:1002800000925F000F901F901895CF93DF9300D0DE
:100290001F92CDB7DEB789837B836A8389818A30D9
:1002A00031F48A819B81BC018DE00E94450180EC84
:1002B00090E0FC018081882F90E080729927892B43
:1002C000B1F386EC90E02981FC01208380E090E08E
:1002D0000F900F900F90DF91CF910895CF93DF9300
:1002E00000D000D0CDB7DEB79C838B8380E290E056
:1002F000FC01808180958072898380E290E0FC011E
:100300008081809580718A838B819C818230910568
:1003100051F1833091052CF4009769F00197B1F009
:1003200056C084309105C9F1843091054CF1059790
:1003300009F440C04CC08A81882329F081E090E014
:100340009C838B8347C01C821B8244C08981882385
:1003500029F085E090E09C838B833CC082E090E0B4
:100360009C838B8337C08981882329F085E090E0C6
:100370009C838B832FC083E090E09C838B832AC077
:100380008981882329F085E090E09C838B8322C0BB
:1003900084E090E09C838B831DC08981882329F0B1
:1003A00085E090E09C838B8315C081E090E09C8386
:1003B0008B8310C08A81882329F081E090E09C83A0
:1003C0008B8308C085E090E09C838B8303C01C82F4
:1003D0001B8200008B819C8182309105F9F0833073
:1003E00091052CF4009761F0019789F031C08430B9
:1003F000910511F184309105C4F0059721F128C0D1
:100400008FEF80931F018EE08093200121C080E454
:1004100080931F0181E1809320011AC080E28093C4
:100420001F018BE18093200113C080E180931F01A5
:1004300081E1809320010CC084E080931F0181E161
:100440008093200105C010921F011092200100002E
:100450008B819C810F900F900F900F90DF91CF9127
:100460000895CF93DF93CDB7DEB727970FB6F894F3
:10047000DEBF0FBECDBF9F838E8380E290E0FC0184
:10048000808180958072898380E290E0FC01808188
:10049000882F90E08170992721E0892B09F020E0D6
:1004A0002A8380E290E0FC018081809582708B83BA
:1004B00080E290E0FC018081809584708C8380E2F2
:1004C00090E0FC018081809588708D838E819F8172
:1004D00082309105F1F0833091052CF4009749F0BA
:1004E000019791F03CC08330910579F1049791F127
:1004F00036C08981882329F081E090E09F838E8334
:1005000031C01F821E822EC082E090E09F838E83C6
:1005100029C08A81882319F48C81882329F083E0FB
:1005200090E09F838E8310C08B81882319F48D8186
:10053000882329F084E090E09F838E8305C082E0C9
:1005400090E09F838E830EC00DC082E090E09F8379
:100550008E8308C082E090E09F838E8303C01F8259
:100560001E8200008E819F818230910599F0833038
:10057000910534F4009709F440C0019739F03EC06A
:1005800083309105C1F0049739F138C080E8809339
:10059000210134C087E080932201809121018130C4
:1005A00021F480E88093210129C080912101869562
:1005B0008093210123C083E1809322018091210156
:1005C000813021F480E88093210118C080912101BD
:1005D00086958093210112C08FE080932201809143
:1005E0002101813021F480E88093210107C08091AE
:1005F000210186958093210101C000008E819F8199
:1006000027960FB6F894DEBF0FBECDBFDF91CF9116
:100610000895CF93DF9300D000D0CDB7DEB79C8391
:100620008B8319821A828B819C81892B19F41C82FD
:100630001B8203C01C821B8200008B819C81892B42
:1006400069F49091210180911F01892B89839091F8
:10065000220180912001892B8A83000088E290E0AA
:100660002981FC0120838BE290E02A81FC01208318
:100670008B819C810F900F900F900F90DF91CF9105
:100680000895CF93DF93CDB7DEB72C970FB6F894CC
:10069000DEBF0FBECDBF6D837E838F839887298792
:1006A0003A874B875C878D819E81AF81B88529858C
:1006B0003A854B855C85BC01CD010E942C05DC018F
:1006C000CB0189839A83AB83BC8389819A81AB8177
:1006D000BC81892B8A2B8B2B29F489859A85AB8544
:1006E000BC8511C089859A85AB85BC858D839E8329
:1006F000AF83B88789819A81AB81BC8189879A87CA
:10070000AB87BC87D0CFBC01CD012C960FB6F89437
:10071000DEBF0FBECDBFDF91CF9108950F931F9322
:10072000CF93DF93CDB7DEB72F970FB6F894DEBF28
:100730000FBECDBF81E290E0FC01108282E290E02A
:100740002FEFFC01208387E290E02FEFFC01208354
:1007500088E290E0FC0110828AE290E02FEFFC0139
:1007600020838BE290E0FC01108286E0E2E1F1E080
:10077000DE011A9601900D928A95E1F783E090E0F0
:1007800098878F838FEF898789858093230181E004
:1007900090E0A0E0B0E08093240190932501A09325
:1007A0002601B09327018091240190912501A09109
:1007B0002601B09127018093280190932901A093ED
:1007C0002A01B0932B018EE691E090932D01809346
:1007D0002C01898580932E0188EE93E0A0E0B0E0A3
:1007E00080932F0190933001A0933101B093320197
:1007F00080912F0190913001A0913101B09132018F
:100800008093330190933401A0933501B093360166
:1008100081E392E09093380180933701898580933A
:10082000390181E090E0A0E0B0E080933A0190933C
:100830003B01A0933C01B0933D0180913A0190911E
:100840003B01A0913C01B0913D0180933E0190930A
:100850003F01A0934001B093410189E093E0909360
:100860004301809342018A859B85FC0181819281AD
:10087000A381B4818B839C83AD83BE8381E090E0B0
:100880009A83898325C089819A81880F991F9E0147
:100890002F5F3F4F820F931F0996FC01808191814A
:1008A000FC0121813281438154818B819C81AD8106
:1008B000BE81BC01CD010E944103DC01CB018B83D1
:1008C0009C83AD83BE8389819A8101969A838983B3
:1008D00029813A818F81988528173907A0F28B8169
:1008E0009C81AD81BE81BC01CD010E9467000E9448
:1008F00095001A821982A0C089819A81880F991F58
:100900009E012F5F3F4F820F931F0996FC0180814C
:100910009181FC01258136814781508589819A81A9
:10092000880F991FBE016F5F7F4F860F971F099633
:10093000FC0180819181FC0181819281A381B4813C
:10094000281739074A075B0709F045C089819A8152
:10095000880F991F9E012F5F3F4F820F931F0996AB
:10096000FC010081118189819A81880F991F9E0164
:100970002F5F3F4F820F931F0996FC018081918169
:10098000FC012185328589819A81880F991FAE01EA
:100990004F5F5F4F840F951F0996FC018081918105
:1009A000FC018081082E000C990BF9010995F801D2
:1009B000808389819A81880F991F9E012F5F3F4F05
:1009C000820F931F0996FC0180819181FC011582A1
:1009D00016821782108689819A81880F991F9E013D
:1009E0002F5F3F4F820F931F0996FC016081718139
:1009F00089819A81880F991F9E012F5F3F4F820F37
:100A0000931F0996FC0180819181FC01258136812B
:100A1000478150858B819C81AD81BE81820F931F60
:100A2000A41FB51FFB0185839683A783B0878981A7
:100A30009A8101969A83898329813A818F81988549
:100A40002817390708F458CF00008091180188232F
:100A5000E1F3109218014DCFA1E21A2EAA1BBB1B85
:100A6000FD010DC0AA1FBB1FEE1FFF1FA217B3077A
:100A7000E407F50720F0A21BB30BE40BF50B661F90
:100A8000771F881F991F1A9469F760957095809554
:100A900090959B01AC01BD01CF010895F894FFCF63
:100AA00001000000000000020000000045010000FD
:080AB000000023012E013901B1
:00000001FF
