:100000000C9446000C9465000C9465000C946500FB
:100010000C9465000C9465000C9465000C946500CC
:100020000C9465000C9465000C9465000C946500BC
:100030000C9465000C9465000C9465000C946500AC
:100040000C9465000C9465000C9465000C9465009C
:100050000C9465000C9465000C9465000C9465008C
:100060000C9465000C9465000C9465000C9465007C
:100070000C9465000C9465000C9465000C9465006C
:100080000C9465000C9465000C94650011241FBE4F
:10009000CFEFD0E4DEBFCDBF11E0A0E0B1E0E0EEF5
:1000A000FAE000E00BBF02C007900D92AE39B10735
:1000B000D9F721E0AEE9B1E001C01D92A53AB2073F
:1000C000E1F70E9411030C946E050C940000CF938D
:1000D000DF9300D01F92CDB7DEB789837B836A831D
:1000E00089818A3031F48A819B81BC018DE00E9434
:1000F000670080EC90E0FC018081882F90E08072A6
:100100009927892BB1F386EC90E02981FC012083AB
:1001100080E090E00F900F900F90DF91CF910895C5
:100120000F931F93CF93DF9300D000D0CDB7DEB7EE
:1001300069837A838B839C8380919F019091A00136
:10014000A091A101B091A2019C01AD0169817A81C8
:100150008B819C810E949D03882309F477C020E055
:1001600030E0A90169817A818B819C810E949D0385
:10017000882351F481E990E021E930E0F901208100
:100180002870FC01208309C081E990E021E930E07A
:10019000F90120812360FC01208328E539E344E74D
:1001A0005FE369817A818B819C810E949D03882312
:1001B00044F488E990E02FEF3FEFFC013183208386
:1001C00034C020E034E244EF56E469817A818B81C7
:1001D0009C810E94FC04181634F488E990E0FC012C
:1001E0001182108222C008E910E020E030E040E0F7
:1001F00053E469817A818B819C810E940105DC0135
:10020000CB019C01AD0160E074E284EF9AE40E94AE
:10021000A203DC01CB01BC01CD010E941404DC016E
:10022000CB010197F8019183808384E990E0FC0180
:100230001182108289819A81AB81BC8180939F0158
:100240009093A001A093A101B093A20100000F9090
:100250000F900F900F90DF91CF911F910F91089504
:10026000CF93DF93CDB7DEB780E990E020E4FC01C7
:10027000208381E990E02BE0FC01208360E070E0C6
:10028000CB010E9490000000DF91CF910895CF93A1
:10029000DF93CDB7DEB780E990E0FC01108281E901
:1002A00090E0FC0110820000DF91CF910895CF9281
:1002B000DF92EF92FF920F931F93CF93DF9300D0C3
:1002C00000D0CDB7DEB780E290E0FC018081882FBE
:1002D00090E08170992721E0892B09F020E02983A3
:1002E00084E68A831B821C828091A3019091A401E1
:1002F0008230910541F18330910528F4009759F03F
:10030000019781F043C18330910509F4DCC0049763
:1003100009F42BC13BC181E090E09093A40180934C
:10032000A30134C18981813039F482E090E0909357
:10033000A4018093A3012AC181E090E09093A401DD
:100340008093A30123C19B818A81890F8B83809134
:100350009E01882F90E0880F991F880F991F82595E
:100360009E4FFC0180819181A281B38120E030E029
:10037000A901BC01CD010E949D03882321F0809139
:100380009E018B3089F48981813039F484E090E0DA
:100390009093A4018093A30195C081E090E0909395
:1003A000A4018093A3018EC08B81882F90E0092E39
:1003B000000CAA0BBB0BBC01CD010E944C047B01BD
:1003C0008C0180919E01882F90E0880F991F880FE3
:1003D000991F825C9E4FFC0180819181A281B38133
:1003E0009C01AD01C801B7010E949D0388233CF424
:1003F00082E090E09093A4018093A301C7C08B8119
:10040000882F90E0092E000CAA0BBB0BBC01CD017C
:100410000E944C047B018C0180919E01882F90E00A
:10042000880F991F880F991F825C9E4FFC01808165
:100430009181A281B3819C01AD01C801B7010E94E5
:10044000FC04882394F180919E01882F90E0880F0E
:10045000991F880F991F825C9E4FFC01C080D1803C
:10046000E280F3808B81882F90E0092E000CAA0B8C
:10047000BB0BBC01CD010E944C04DC01CB019C01F3
:10048000AD01C701B6010E943103DC01CB01BC0103
:10049000CD010E941B04DC01CB018B8383E090E043
:1004A0009093A4018093A30171C01B8280919E014F
:1004B0008F5F80939E0182E090E09093A4018093EF
:1004C000A30164C063C09C818A81890F8C838C8165
:1004D000882F90E0092E000CAA0BBB0BBC01CD01AC
:1004E0000E944C047B018C0180919E01882F90E03A
:1004F000880F991F880F991F82599E4FFC01808198
:100500009181A281B3819C01AD01C801B7010E9414
:10051000FC0488231CF180919E018C3090F01C8299
:100520008981813039F484E090E09093A401809334
:10053000A3012CC081E090E09093A4018093A301DB
:1005400025C01C8280919E018F5F80939E0182E076
:1005500090E09093A4018093A30118C083E090E001
:100560009093A4018093A30111C08981813039F453
:1005700084E090E09093A4018093A30106C081E001
:1005800090E09093A4018093A30100008091A301C7
:100590009091A40182309105A9F08330910528F44F
:1005A000009781F1019739F02EC083309105F1F069
:1005B000049711F128C00E94470110929E011B82EE
:1005C0001C8221C080919E01882F90E0880F991F86
:1005D000880F991F825F9E4FFC0180819181A281CB
:1005E000B381BC01CD010E9490000DC060E070E0BD
:1005F000CB010E94900007C060E070E0CB010E9438
:10060000900001C0000000000F900F900F900F901D
:10061000DF91CF911F910F91FF90EF90DF90CF90DE
:100620000895CF93DF93CDB7DEB781E290E0FC0170
:10063000108282E290E02FEFFC01208384E290E0C0
:100640002FEFFC01208385E290E0FC0110820E94E4
:1006500030011092A4011092A3010E945701FDCF16
:100660005058BB27AA270E9448030C94C2040E943A
:10067000B40438F00E94BB0420F039F49F3F19F411
:1006800026F40C94B1040EF4E095E7FB0C94AB0453
:10069000E92F0E94D30458F3BA176207730784073F
:1006A000950720F079F4A6F50C94F5040EF4E09586
:1006B0000B2EBA2FA02D0B01B90190010C01CA011C
:1006C000A0011124FF27591B99F0593F50F4503EC7
:1006D00068F11A16F040A22F232F342F4427585FB9
:1006E000F3CF469537952795A795F0405395C9F7D1
:1006F0007EF41F16BA0B620B730B840BBAF0915089
:10070000A1F0FF0FBB1F661F771F881FC2F70EC027
:10071000BA0F621F731F841F48F4879577956795FA
:10072000B795F7959E3F08F0B0CF9395880F08F0E6
:100730009927EE0F9795879508950E94870408F4EE
:1007400081E008950E94B6030C94C2040E94BB0489
:1007500058F00E94B40440F029F45F3F29F00C9453
:10076000AB0451110C94F6040C94B1040E94D30410
:1007700068F39923B1F3552391F3951B550BBB27D0
:10078000AA2762177307840738F09F5F5F4F220F15
:10079000331F441FAA1FA9F335D00E2E3AF0E0E80C
:1007A00032D091505040E695001CCAF72BD0FE2F56
:1007B00029D0660F771F881FBB1F261737074807EA
:1007C000AB07B0E809F0BB0B802DBF01FF279358A2
:1007D0005F4F3AF09E3F510578F00C94AB040C94B7
:1007E000F6045F3FE4F3983ED4F3869577956795DA
:1007F000B795F7959F5FC9F7880F911D96958795D7
:1008000097F90895E1E0660F771F881FBB1F6217F5
:1008100073078407BA0720F0621B730B840BBA0BB3
:10082000EE1F88F7E09508950E941B046894B111AB
:100830000C94F60408950E94DB0488F09F5798F00A
:10084000B92F9927B751B0F0E1F0660F771F881FD5
:10085000991F1AF0BA95C9F714C0B13091F00E94EF
:10086000F504B1E008950C94F504672F782F8827DC
:10087000B85F39F0B93FCCF3869577956795B39516
:10088000D9F73EF490958095709561957F4F8F4F85
:100890009F4F0895E89409C097FB3EF4909580958A
:1008A000709561957F4F8F4F9F4F9923A9F0F92F36
:1008B00096E9BB279395F695879577956795B795B4
:1008C000F111F8CFFAF4BB0F11F460FF1BC06F5F9A
:1008D0007F4F8F4F9F4F16C0882311F096E911C0AC
:1008E000772321F09EE8872F762F05C0662371F0CD
:1008F00096E8862F70E060E02AF09A95660F771FE1
:10090000881FDAF7880F9695879597F90895990FBC
:100910000008550FAA0BE0E8FEEF16161706E807C9
:10092000F907C0F012161306E407F50798F0621BEA
:10093000730B840B950B39F40A2661F0232B242BBF
:10094000252B21F408950A2609F4A140A6958FEFDE
:10095000811D811D089597F99F6780E870E060E030
:1009600008959FEF80EC089500240A941616170648
:1009700018060906089500240A9412161306140690
:1009800005060895092E0394000C11F4882352F0F3
:10099000BB0F40F4BF2B11F460FF04C06F5F7F4FAB
:1009A0008F4F9F4F089557FD9058440F551F59F092
:1009B0005F3F71F04795880F97FB991F61F09F3F4C
:1009C00079F087950895121613061406551FF2CF75
:1009D0004695F1DF08C0161617061806991FF1CFC5
:1009E00086957105610508940895E894BB276627EC
:1009F0007727CB0197F908950E94870408F48FEFB9
:100A000008950E9414050C94C2040E94B40438F0A6
:100A10000E94BB0420F0952311F00C94AB040C94BD
:100A2000B10411240C94F6040E94D30470F3959F32
:100A3000C1F3950F50E0551F629FF001729FBB27D5
:100A4000F00DB11D639FAA27F00DB11DAA1F649F71
:100A50006627B00DA11D661F829F2227B00DA11D24
:100A6000621F739FB00DA11D621F839FA00D611DAA
:100A7000221F749F3327A00D611D231F849F600DCB
:100A8000211D822F762F6A2F11249F5750409AF0F4
:100A9000F1F088234AF0EE0FFF1FBB1F661F771F80
:100AA000881F91505040A9F79E3F510580F00C944B
:100AB000AB040C94F6045F3FE4F3983ED4F38695C0
:100AC00077956795B795F795E7959F5FC1F7FE2BEB
:100AD000880F911D9695879597F90895F894FFCF03
:100AE00000000002000000006700000000007BD44E
:100AF0009243A4F0F6430000DC430000C4437BD4DF
:100B000092437BD492437BD49243A4F0F6430000FB
:100B1000DC430000C443A4D0A443A4D0A4430000F9
:100B200096430000964300004843000096430000AF
:100B3000C8430000484300004843000096430000BB
:100B40004843000048430000C843000048430000F9
:100B5000C8420000C8420000C842000048430000EC
:100B600096430000C8420000C8420000484300000D
:0E0B7000C84200004843000096430000000009
:00000001FF
