:100000000C9446000C9465000C9465000C946500FB
:100010000C9465000C9465000C9465000C946500CC
:100020000C9465000C9465000C9465000C946500BC
:100030000C9465000C94E3000C9465000C9465002E
:100040000C9465000C9465000C9465000C9465009C
:100050000C9465000C9465000C9465000C9465008C
:100060000C9465000C9465000C9465000C9465007C
:100070000C9465000C9465000C9465000C9465006C
:100080000C9465000C9465000C94650011241FBE4F
:10009000CFEFD0E4DEBFCDBF11E0A0E0B1E0E6E6F7
:1000A000FEE000E00BBF02C007900D92AA32B1073C
:1000B000D9F721E0AAE2B1E001C01D92AE36B20745
:1000C000E1F70E9427050C9431070C940000CF93B0
:1000D000DF9300D000D0CDB7DEB769837A838B83FE
:1000E0009C8389819A81AB81BC818093000190932C
:1000F0000101A0930201B09303018091000190914E
:100100000101A0910201B091030180932B01909312
:100110002C01A0932D01B0932E0100000F900F90A1
:100120000F900F90DF91CF910895CF93DF93CDB7CC
:10013000DEB781E890E02BE0FC01208388E890E0C6
:100140002DE730E0FC01318320838FE690E022E050
:10015000FC01208384E890E0FC01118210828091F0
:10016000000190910101A0910201B09103018093DF
:100170002B0190932C01A0932D01B0932E018FE5BC
:1001800090E02FE530E0F90120812068FC01208318
:100190000000DF91CF910895CF93DF93CDB7DEB705
:1001A00081E890E0FC0110820000DF91CF9108957A
:1001B000CF93DF93CDB7DEB781E080932A010000B3
:1001C000DF91CF9108951F920F9200905F000F92E0
:1001D000112400905B000F922F933F934F935F93F6
:1001E0006F937F938F939F93AF93BF93EF93FF93FF
:1001F000CF93DF93CDB7DEB780912B0190912C0187
:10020000A0912D01B0912E010197A109B109809310
:100210002B0190932C01A0932D01B0932E0180917E
:100220002B0190912C01A0912D01B0912E01892BD1
:100230008A2B8B2B91F40E94D80080910001909121
:100240000101A0910201B091030180932B019093D1
:100250002C01A0932D01B0932E010000DF91CF91CE
:10026000FF91EF91BF91AF919F918F917F916F918E
:100270005F914F913F912F910F9000925B000F90F3
:1002800000925F000F901F901895CF93DF9300D0DE
:100290001F92CDB7DEB789837B836A8389818A30D9
:1002A00031F48A819B81BC018DE00E94450180EC84
:1002B00090E0FC018081882F90E080729927892B43
:1002C000B1F386EC90E02981FC01208380E090E08E
:1002D0000F900F900F90DF91CF910895CF93DF9300
:1002E00000D000D0CDB7DEB79C838B8380E290E056
:1002F000FC01808180958072898380E290E0FC011E
:100300008081809580718A838B819C818230910568
:1003100051F1833091052CF4009769F00197B1F009
:1003200056C084309105C9F1843091054CF1059790
:1003300009F440C04CC08A81882329F081E090E014
:100340009C838B8347C01C821B8244C08981882385
:1003500029F085E090E09C838B833CC082E090E0B4
:100360009C838B8337C08981882329F085E090E0C6
:100370009C838B832FC083E090E09C838B832AC077
:100380008981882329F085E090E09C838B8322C0BB
:1003900084E090E09C838B831DC08981882329F0B1
:1003A00085E090E09C838B8315C081E090E09C8386
:1003B0008B8310C08A81882329F081E090E09C83A0
:1003C0008B8308C085E090E09C838B8303C01C82F4
:1003D0001B8200008B819C8182309105F9F0833073
:1003E00091052CF4009761F0019789F032C08430B8
:1003F000910511F184309105C4F0059721F129C0D0
:100400008FEF80932F018EE08093120122C080E451
:1004100080932F0181E1809312011BC080E28093C1
:100420002F018BE18093120114C080E180932F0192
:1004300081E1809312010DC084E080932F0181E15E
:100440008093120106C010922F018FE18093120158
:1004500000008B819C810F900F900F900F90DF9187
:10046000CF910895CF93DF93CDB7DEB727970FB61F
:10047000F894DEBF0FBECDBF9F838E8380E290E0F5
:10048000FC01808180958072898380E290E0FC018C
:100490008081882F90E08170992721E0892B09F0D5
:1004A00020E02A8380E290E0FC01808180958270C8
:1004B0008B8380E290E0FC018081809584708C8346
:1004C00080E290E0FC018081809588708D838E8130
:1004D0009F8182309105F9F0833091052CF40097CB
:1004E00059F00197E9F097C08330910509F46FC086
:1004F000049709F47EC08FC010923101109232012E
:100500008981882329F082E090E09F838E8386C0D2
:100510001F821E8283C081E090E09F838E837EC015
:1005200080913001883008F04CC080913001882FD4
:1005300090E08B5E9E4FFC0180818130B9F48A810E
:10054000882319F48C81882351F0809130018F5FCA
:100550008093300181E090E09F838E8337C01092BA
:10056000300183E090E09F838E8358C080913001FA
:10057000882F90E08B5E9E4FFC0180818230B9F421
:100580008B81882319F48D81882351F0809130016B
:100590008F5F8093300181E090E09F838E8316C04F
:1005A0001092300183E090E09F838E8337C080916A
:1005B00030018F5F8093300181E090E09F838E83D4
:1005C0002DC084E090E09F838E8328C027C081E007
:1005D000809332018981882339F01092320182E0C0
:1005E00090E09F838E831AC083E090E09F838E8388
:1005F00015C081E0809331018981882339F0109200
:10060000310182E090E09F838E8308C084E090E017
:100610009F838E8303C01F821E8200008E819F8174
:100620008230910589F08330910534F4009709F404
:100630006CC0019799F06AC08330910509F44FC0EE
:10064000049709F457C062C08FE08093130188E0DB
:100650008093330180E88093340158C087E0809311
:10066000140180913401813069F48A81882319F45E
:100670008C81882339F080E88093340181E0809375
:1006800014012CC080913401813069F48B8188235E
:1006900019F48D81882339F080E88093340187E054
:1006A000809314011BC080913401813021F480E8D3
:1006B000809334012BC08A81882319F48C8188238C
:1006C00021F081E08093140103C087E0809314013E
:1006D0008091340186958093340118C017C0109220
:1006E00034018FE180931401109233018FE18093E4
:1006F00013010CC0109234018FE180931401109209
:1007000033018FE18093130101C000008E819F812E
:1007100027960FB6F894DEBF0FBECDBFDF91CF9105
:100720000895CF93DF9300D0CDB7DEB79A83898346
:1007300089819A8181309105C1F0823091051CF444
:10074000892B39F028C082309105A1F00397B9F0C8
:1007500022C080913201882329F081E090E09A83C1
:1007600089831CC01A82198219C082E090E09A83A2
:10077000898314C083E090E09A8389830FC08091BD
:100780003201882329F081E090E09A83898306C0B2
:100790001A82198203C01A821982000089819A8103
:1007A0008130910591F0823091051CF4892B39F04C
:1007B00020C08230910579F00397A1F01AC08FE133
:1007C00080931D011092350114C010921D0180E22A
:1007D000809335010EC08FE080931D0180E18093EE
:1007E000350107C08FE080931D0188E080933501BB
:1007F000000089819A810F900F90DF91CF91089529
:10080000CF93DF9300D0CDB7DEB79A8389838981F8
:100810009A818230910511F1833091052CF4009773
:1008200061F00197B1F035C08430910509F1843051
:100830009105CCF0059709F12CC0809131018823F6
:1008400029F081E090E09A83898326C01A82198278
:1008500023C082E090E09A8389831EC083E090E009
:100860009A83898319C084E090E09A83898314C0B5
:1008700085E090E09A8389830FC0809131018823BD
:1008800029F081E090E09A83898306C01A82198258
:1008900003C01A821982000089819A8182309105F1
:1008A000E9F0833091052CF4009761F0019781F015
:1008B00030C08430910501F184309105B4F0059782
:1008C00011F127C08FE180931E011092360121C0E3
:1008D00010921E0180E4809336011BC087E1809353
:1008E0001E0180E28093360114C08BE180931E01CB
:1008F00080E1809336010DC087E180931E0188E07E
:100900008093360106C010921E0184E08093360168
:10091000000089819A810F900F90DF91CF91089507
:10092000CF93DF9300D000D0CDB7DEB79C838B830D
:1009300019821A828B819C81892B19F41C821B825B
:1009400003C01C821B8200008B819C81892BF9F4DF
:100950009091330180912F01982B80913401982B35
:1009600080913601982B80913501892B8983909154
:100970001301809112019823809114019823809192
:100980001E01982380911D0189238A83000088E23B
:1009900090E02981FC0120838BE290E02A81FC0118
:1009A00020838B819C810F900F900F900F90DF918F
:1009B000CF910895CF93DF93CDB7DEB72C970FB6C5
:1009C000F894DEBF0FBECDBF6D837E838F83988783
:1009D00029873A874B875C878D819E81AF81B88557
:1009E00029853A854B855C85BC01CD010E940F07A6
:1009F000DC01CB0189839A83AB83BC8389819A8193
:100A0000AB81BC81892B8A2B8B2B29F489859A8514
:100A1000AB85BC8511C089859A85AB85BC858D83E6
:100A20009E83AF83B88789819A81AB81BC81898796
:100A30009A87AB87BC87D0CFBC01CD012C960FB66F
:100A4000F894DEBF0FBECDBFDF91CF9108950F9315
:100A50001F93CF93DF93CDB7DEB763970FB6F894AC
:100A6000DEBF0FBECDBF81E290E0FC01108282E2CA
:100A700090E02FEFFC01208387E290E02FEFFC0154
:100A8000208388E290E0FC0110828AE290E02FEF60
:100A9000FC0120838BE290E0FC0110828AE0EFE110
:100AA000F1E0DE011A9601900D928A95E1F785E05A
:100AB00090E098878F838FEF8987898580933701AE
:100AC00081E090E0A0E0B0E080933801909339019C
:100AD000A0933A01B0933B01809138019091390184
:100AE000A0913A01B0913B0180933C0190933D016C
:100AF000A0933E01B0933F018EE691E090934101B7
:100B0000809340018985809342018CE291E0A0E0CE
:100B1000B0E08093430190934401A0934501B093CA
:100B200046018091430190914401A0914501B0910B
:100B300046018093470190934801A0934901B093E7
:100B40004A0182E392E090934C0180934B018985A6
:100B500080934D0181E090E0A0E0B0E080934E01F1
:100B600090934F01A0935001B093510180914E0199
:100B700090914F01A0915001B09151018093520189
:100B800090935301A0935401B093550180E094E0F9
:100B9000909357018093560189858093580181E095
:100BA00090E0A0E0B0E08093590190935A01A093A7
:100BB0005B01B0935C018091590190915A01A09121
:100BC0005B01B0915C0180935D0190935E01A09305
:100BD0005F01B093600181E993E09093620180939B
:100BE000610189858093630181E090E0A0E0B0E03D
:100BF0008093640190936501A0936601B0936701AF
:100C00008091640190916501A0916601B0916701A6
:100C10008093680190936901A0936A01B0936B017E
:100C200080E994E090936D0180936C018A859B85A7
:100C3000FC0181819281A381B4818B839C83AD83EC
:100C4000BE8381E090E09A83898325C089819A815F
:100C5000880F991F9E012F5F3F4F820F931F0996A8
:100C6000FC0180819181FC01218132814381548189
:100C70008B819C81AD81BE81BC01CD010E94DA04D3
:100C8000DC01CB018B839C83AD83BE8389819A81F8
:100C900001969A83898329813A818F8198852817C3
:100CA0003907A0F28B819C81AD81BE81BC01CD0151
:100CB0000E9467000E9495001A821982A0C0898153
:100CC0009A81880F991F9E012F5F3F4F820F931FBC
:100CD0000996FC0180819181FC0125813681478143
:100CE000508589819A81880F991FBE016F5F7F4F60
:100CF000860F971F0996FC0180819181FC018181FB
:100D00009281A381B481281739074A075B0709F04C
:100D100045C089819A81880F991F9E012F5F3F4F9F
:100D2000820F931F0996FC010081118189819A81AC
:100D3000880F991F9E012F5F3F4F820F931F0996C7
:100D4000FC0180819181FC012185328589819A8114
:100D5000880F991FAE014F5F5F4F840F951F099653
:100D6000FC0180819181FC018081082E000C990B8F
:100D7000F9010995F801808389819A81880F991F6B
:100D80009E012F5F3F4F820F931F0996FC018081C8
:100D90009181FC01158216821782108689819A81C1
:100DA000880F991F9E012F5F3F4F820F931F099657
:100DB000FC016081718189819A81880F991F9E0150
:100DC0002F5F3F4F820F931F0996FC018081918115
:100DD000FC0125813681478150858B819C81AD81C5
:100DE000BE81820F931FA41FB51FFB0185839683CD
:100DF000A783B08789819A8101969A838983298103
:100E00003A818F8198852817390708F458CF000058
:100E100080912A018823E1F310922A014DCFA1E2AB
:100E20001A2EAA1BBB1BFD010DC0AA1FBB1FEE1F64
:100E3000FF1FA217B307E407F50720F0A21BB30BAF
:100E4000E40BF50B661F771F881F991F1A9469F72B
:100E500060957095809590959B01AC01BD01CF0187
:060E60000895F894FFCF95
:100E66000100000000000002000000004501000033
:100E760000001F1F1F00000100000000001F1F3799
:0A0E86000142014D01580163010013
:00000001FF
