:100000000C9446000C9465000C9465000C946500FB
:100010000C9465000C9465000C9465000C946500CC
:100020000C9465000C9465000C9465000C946500BC
:100030000C9465000C94E3000C9465000C9465002E
:100040000C9465000C9465000C9465000C9465009C
:100050000C9465000C9465000C9465000C9465008C
:100060000C9465000C9465000C9465000C9465007C
:100070000C9465000C9465000C9465000C9465006C
:100080000C9465000C9465000C94650011241FBE4F
:10009000CFEFD0E4DEBFCDBF11E0A0E0B1E0E2E4FD
:1000A000FAE000E00BBF02C007900D92A231B10749
:1000B000D9F721E0A2E1B1E001C01D92A133B2075E
:1000C000E1F70E9485030C941F050C940000CF9368
:1000D000DF9300D000D0CDB7DEB769837A838B83FE
:1000E0009C8389819A81AB81BC818093000190932C
:1000F0000101A0930201B09303018091000190914E
:100100000101A0910201B09103018093130190932A
:100110001401A0931501B093160100000F900F90E9
:100120000F900F90DF91CF910895CF93DF93CDB7CC
:10013000DEB781E890E02BE0FC01208388E890E0C6
:100140002DE730E0FC01318320838FE690E022E050
:10015000FC01208384E890E0FC01118210828091F0
:10016000000190910101A0910201B09103018093DF
:10017000130190931401A0931501B09316018FE51C
:1001800090E02FE530E0F90120812068FC01208318
:100190000000DF91CF910895CF93DF93CDB7DEB705
:1001A00081E890E0FC0110820000DF91CF9108957A
:1001B000CF93DF93CDB7DEB781E0809312010000CB
:1001C000DF91CF9108951F920F9200905F000F92E0
:1001D000112400905B000F922F933F934F935F93F6
:1001E0006F937F938F939F93AF93BF93EF93FF93FF
:1001F000CF93DF93CDB7DEB78091130190911401B7
:10020000A0911501B09116010197A109B109809340
:10021000130190931401A0931501B09316018091DE
:10022000130190911401A0911501B0911601892B31
:100230008A2B8B2B91F40E94D80080910001909121
:100240000101A0910201B0910301809313019093E9
:100250001401A0931501B09316010000DF91CF9116
:10026000FF91EF91BF91AF919F918F917F916F918E
:100270005F914F913F912F910F9000925B000F90F3
:1002800000925F000F901F901895CF93DF9300D0DE
:100290001F92CDB7DEB789837B836A8389818A30D9
:1002A00031F48A819B81BC018DE00E94450180EC84
:1002B00090E0FC018081882F90E080729927892B43
:1002C000B1F386EC90E02981FC01208380E090E08E
:1002D0000F900F900F90DF91CF910895CF93DF9300
:1002E00000D000D0CDB7DEB79C838B8380E290E056
:1002F000FC01808180958072898380E290E0FC011E
:100300008081809580718A838B819C818230910568
:1003100051F1833091052CF4009769F00197B1F009
:1003200056C084309105C9F1843091054CF1059790
:1003300009F440C04CC08A81882329F081E090E014
:100340009C838B8347C01C821B8244C08981882385
:1003500029F085E090E09C838B833CC082E090E0B4
:100360009C838B8337C08981882329F085E090E0C6
:100370009C838B832FC083E090E09C838B832AC077
:100380008981882329F085E090E09C838B8322C0BB
:1003900084E090E09C838B831DC08981882329F0B1
:1003A00085E090E09C838B8315C081E090E09C8386
:1003B0008B8310C08A81882329F081E090E09C83A0
:1003C0008B8308C085E090E09C838B8303C01C82F4
:1003D0001B8200008B819C8182309105F9F0833073
:1003E00091052CF4009761F0019789F031C08430B9
:1003F000910511F184309105C4F0059721F128C0D1
:100400008FEF8093190181E180931A0121C080E46C
:10041000809319018EE080931A011AC080E28093C4
:10042000190184E080931A0113C080E180931901BF
:100430008EE080931A010CC084E0809319018EE055
:1004400080931A0105C01092190110921A01000040
:1004500088E290E020911901FC0120838BE290E07A
:1004600020911A01FC0120838B819C810F900F90B9
:100470000F900F90DF91CF910895CF93DF93CDB779
:10048000DEB727970FB6F894DEBF0FBECDBF9F83B0
:100490008E8380E290E0FC01808180958072898368
:1004A00080E290E0FC018081882F90E081709927A4
:1004B00021E0892B09F020E02A8380E290E0FC0112
:1004C0008081809582708B8380E290E0FC01808146
:1004D000809584708C8380E290E0FC01808180951F
:1004E00088708D838E819F8181309105B9F0823033
:1004F00091051CF4892B39F059C08230910531F1F6
:100500000397E1F153C08981882329F081E090E0CD
:100510009F838E834EC01F821E824BC08A81882398
:1005200019F48C81882321F082E090E09F838E83F0
:100530008B81882319F48D81882319F01F821E82F4
:1005400038C081E090E09F838E8333C08A81882306
:1005500019F48C81882321F082E090E09F838E83C0
:100560008B81882319F48D81882319F01F821E82C4
:1005700020C081E090E09F838E831BC08A81882306
:1005800019F48C81882321F082E090E09F838E8390
:100590008B81882319F48D81882319F01F821E8294
:1005A00008C081E090E09F838E8303C01F821E827B
:1005B00000008E819F818130910599F082309105F4
:1005C0001CF4892B39F03DC082309105C1F00397AE
:1005D00039F137C080E88093190188E180931A01CE
:1005E00030C080911901813021F480E88093190195
:1005F00028C08091190186958093190122C08CE052
:1006000080931A0180911901813021F480E8809350
:10061000190117C08091190186958093190111C0A5
:1006200080E180931A0180911901813021F480E8E2
:100630008093190105C08091190186958093190155
:10064000000088E290E020911901FC0120838BE2F8
:1006500090E020911A01FC0120838E819F812796D2
:100660000FB6F894DEBF0FBECDBFDF91CF910895D6
:10067000CF93DF93CDB7DEB72C970FB6F894DEBFDC
:100680000FBECDBF6D837E838F83988729873A877E
:100690004B875C878D819E81AF81B88529853A859E
:1006A0004B855C85BC01CD010E94FD04DC01CB01C2
:1006B00089839A83AB83BC8389819A81AB81BC8116
:1006C000892B8A2B8B2B29F489859A85AB85BC8550
:1006D00011C089859A85AB85BC858D839E83AF8348
:1006E000B88789819A81AB81BC8189879A87AB87DA
:1006F000BC87D0CFBC01CD012C960FB6F894DEBFDD
:100700000FBECDBFDF91CF9108950F931F93CF936D
:10071000DF93CDB7DEB72D970FB6F894DEBF0FBECF
:10072000CDBF81E290E0FC01108282E290E02FEFE9
:10073000FC01208387E290E02FEFFC01208388E218
:1007400090E0FC0110828AE290E02FEFFC01208310
:100750008BE290E0FC0110828BE191E09B878A871D
:1007600086E291E09D878C8782E090E098878F8376
:100770008FEF8987898580931B0181E090E0A0E05D
:10078000B0E080931C0190931D01A0931E01B093D3
:100790001F0180911C0190911D01A0911E01B0913B
:1007A0001F018093200190932101A0932201B09317
:1007B00023018EE691E090932501809324018985A1
:1007C0008093260184E690E0A0E0B0E080932701CA
:1007D00090932801A0932901B0932A0180912701C9
:1007E00090912801A0912901B0912A0180932B01B9
:1007F00090932C01A0932D01B0932E018DE392E0F4
:100800009093300180932F018A859B85FC01818123
:100810009281A381B4818B839C83AD83BE8381E06D
:1008200090E09A83898325C089819A81880F991FD6
:100830009E012F5F3F4F820F931F0996FC0180811D
:100840009181FC0121813281438154818B819C8182
:10085000AD81BE81BC01CD010E943803DC01CB011A
:100860008B839C83AD83BE8389819A8101969A8311
:10087000898329813A818F81988528173907A0F2C9
:100880008B819C81AD81BE81BC01CD010E9467003E
:100890000E9495001A821982A0C089819A81880FCE
:1008A000991F9E012F5F3F4F820F931F0996FC01F6
:1008B00080819181FC012581368147815085898124
:1008C0009A81880F991FBE016F5F7F4F860F971F18
:1008D0000996FC0180819181FC0181819281A38133
:1008E000B481281739074A075B0709F045C0898199
:1008F0009A81880F991F9E012F5F3F4F820F931F90
:100900000996FC010081118189819A81880F991FC4
:100910009E012F5F3F4F820F931F0996FC0180813C
:100920009181FC012185328589819A81880F991FE7
:10093000AE014F5F5F4F840F951F0996FC018081C8
:100940009181FC018081082E000C990BF901099519
:10095000F801808389819A81880F991F9E012F5FFA
:100960003F4F820F931F0996FC0180819181FC010A
:10097000158216821782108689819A81880F991FA5
:100980009E012F5F3F4F820F931F0996FC016081EC
:10099000718189819A81880F991F9E012F5F3F4F36
:1009A000820F931F0996FC0180819181FC012581B2
:1009B0003681478150858B819C81AD81BE81820FBC
:1009C000931FA41FB51FFB0185839683A783B08760
:1009D00089819A8101969A83898329813A818F81BD
:1009E00098852817390708F458CF00008091120124
:1009F0008823E1F3109212014DCFA1E21A2EAA1B17
:100A0000BB1BFD010DC0AA1FBB1FEE1FFF1FA217BE
:100A1000B307E407F50720F0A21BB30BE40BF50BBB
:100A2000661F771F881F991F1A9469F76095709544
:100A3000809590959B01AC01BD01CF010895F8947C
:020A4000FFCFE6
:100A4200010000000000000200000000450100005B
:020A52000000A2
:00000001FF
