:100000000C9455000C9474000C9474000C947400BF
:100010000C9474000C9474000C9474000C94740090
:100020000C9474000C9474000C9474000C94740080
:100030000C9474000C9474000C9474000C94740070
:100040000C9474000C9474000C9474000C94740060
:100050000C9474000C9474000C9474000C94740050
:100060000C9474000C9474000C9474000C94740040
:100070000C9474000C9474000C9474000C94740030
:100080000C9474000C9474000C947400CC00D30095
:10009000E400F50006011701280139015C015F0148
:1000A0006201650168016B016E0111241FBECFEF73
:1000B000D0E4DEBFCDBF11E0A0E0B1E0EAE4F3E0C0
:1000C00000E00BBF02C007900D92AE30B107D9F728
:1000D00021E0AEE0B1E001C01D92A031B207E1F72E
:1000E0000E947C010C94A3010C940000CF93DF9339
:1000F00000D01F92CDB7DEB789837B836A83898165
:100100008A3031F48A819B81BC018DE00E947600A7
:1001100080EC90E0FC018081882F90E0807299272C
:10012000892BB1F386EC90E02981FC01208380E0EB
:1001300090E00F900F900F90DF91CF910895CF93A3
:10014000DF9300D0CDB7DEB780E290E0FC01808184
:10015000882F90E08170992721E0892B09F020E019
:100160002A8385E290E0FC018081898380910E01E1
:1001700090910F01CC01A0E0B0E040E050E027E01A
:1001800030E0841B950B2817390708F479C08A5B87
:100190009F4FFC010C949A0181E090E090930F0135
:1001A00080930E0174C08A81813039F482E090E03E
:1001B00090930F0180930E016AC081E090E09093CC
:1001C0000F0180930E0163C08A81813039F483E08E
:1001D00090E090930F0180930E0159C082E090E06F
:1001E00090930F0180930E0152C08A81813039F4BF
:1001F00084E090E090930F0180930E0148C083E06B
:1002000090E090930F0180930E0141C08A8181306C
:1002100039F485E090E090930F0180930E0137C090
:1002200084E090E090930F0180930E0130C08A81AA
:10023000813039F486E090E090930F0180930E01B5
:1002400026C085E090E090930F0180930E011FC0BF
:100250008A81813039F487E090E090930F01809398
:100260000E0115C086E090E090930F0180930E017F
:100270000EC081E090E090930F0180930E0107C0C3
:1002800081E090E090930F0180930E010000809137
:100290000E0190910F01CC01A0E0B0E041E050E0F0
:1002A00026E030E0841B950B28173907C8F0825BE5
:1002B0009F4FFC010C949A018FE3898312C083E065
:1002C00089830FC08FE089830CC081E0898309C0D6
:1002D00080E1898306C08DE0898303C0198201C053
:1002E000000085E290E02981FC01208300000F904E
:1002F0000F90DF91CF910895CF93DF93CDB7DEB705
:1003000081E290E0FC01108282E290E02FEFFC019C
:10031000208384E290E02FEFFC01208385E290E0CF
:1003200027E0FC01208310920F0110920E010E9421
:100330009F00FDCFEE0FFF1F0024001C0BBE079097
:0A034000F691E02D0994F894FFCF28
:0E034A0000000002000000007600000000002D
:00000001FF
